:100000000C944B000C946A000C946A000C946A00E7
:100010000C9434090C9434090C9434090C9434096C
:100020000C946A000C946A000C946A000C945608B4
:100030000C946A000C946A000C946A000C948C0373
:100040000C946A000C946A000C946A000C946A0088
:100050000C946A000C946A000C946A000C946A0078
:100060000C946A000C946A000C946A000C946A0068
:100070000C946A000C946A000C946A000C946A0058
:100080000C946A000C946A000C946A003E67333248
:100090003E3E6333320011241FBECFEFD0E4DEBFFB
:1000A000CDBF11E0A0E0B1E0E0E8FEE100E00BBF71
:1000B00002C007900D92A034B107D9F721E0A0E467
:1000C000B1E001C01D92A338B207E1F70E946C00B5
:1000D0000C943E0F0C9400008CE890E00E94EF031B
:1000E0000E9490060E94130520E041E062E083E058
:1000F0000E94270AC0E0D0E00AE211E084E3E82E83
:1001000081E0F82E0E94130560E080E00E94360531
:10011000DF93CF931F930F930E94680C0E94310AC4
:100120009F938F93FF92EF920E94680C8CE20E9443
:100130004B082DB73EB7285F3F4F0FB6F8943EBF30
:100140000FBE2DBF883031F0803241F0843039F459
:10015000259705C0D195C195D10901C02596C1301B
:100160003FEFD30714F4C1E0DFEFCF3FD10519F023
:1001700014F0CFEFD0E0CE010E948707C3CF90915B
:100180004501E0914101F0914201992311F08491E0
:1001900001C08081282F21542A3110F4805E0895F7
:1001A000803271F42091410130914201A9014F5FE9
:1001B0005F4F50934201409341012115310509F7EA
:1001C0000895EF92FF92CF93DF930E94BF00C0E0AB
:1001D000D0E01BC09E01220F331F93E0CC0FDD1F28
:1001E0009A95E1F7C20FD31F992787FD9095C80F05
:1001F000D91FE0978091410190914201019690931F
:100200004201809341010E94BF00982F90539A3081
:1002100008F3CE01DF91CF91FF90EF9008951092F7
:100220006F0083E28093800081E1809381001092CF
:10023000820080E197E29093890080938800109279
:100240008B0010928A00549A78940895809140010E
:10025000882329F481E0809340010E940F010895D2
:10026000A0E0B0E0E6E3F1E00C94B60A8C015B019B
:10027000E42E0E9426011092000117FF04C01F7790
:10028000AAE0FA2E02C0FF24F394C0908100DD247E
:1002900028EFC222DD2488EC3F2D389FC0011124B5
:1002A00080179107D8F4E80167E20131160710F0D2
:1002B000C0E1D7E2BE017695679580E090E0605896
:1002C000794687469F4F9E0140E050E00E94640AB5
:1002D000890181E090E0C82AD92A2CC098E2F99ED1
:1002E000902D112480E0892EE4014E01982EE40126
:1002F0008016910608F4E801BE01769567959E0187
:1003000040E050E08F2D8A3039F480E090E0605E6C
:10031000734481449F4F06C080E090E060537D4E5F
:100320008C4E9F4F0E94640A890152E0852E912CC9
:10033000C828D9282F2D2A3039F4CE0105966AE035
:1003400070E00E94500AEB0133E0C83ED30779F019
:10035000BE0180E090E0950140E050E00E94340A48
:1003600028EE33E040E050E00E94860A01C095018B
:1003700010926F00C0928100109389000093880052
:1003800040918800509189006E2D603108F06FE037
:1003900080E190E0861B9109BA0102C076956795CD
:1003A0008A95E2F770938B0060938A00309348013E
:1003B0002093470186B38FEF86BB81E080936F0067
:1003C000CDB7DEB7ECE00C94D20A9B018F3F11F061
:1003D000442329F488EE93E0B90140E049C081311B
:1003E00030F0582F5051503618F05FE501C050E002
:1003F000852F6CE00E94440AA82FB0E0E4EFFFEFE5
:10040000AE9FB001AF9F700DBE9F700D1124650FA0
:10041000711D6C30710540F4FB01EE0FFF1FE65FAC
:10042000FE4F6081718102C060E070E0873081F032
:10043000082E02C0660F771F0A94E2F7823028F078
:10044000CB0105966AE070E00CC0605070480BC0AC
:10045000CB01B6E0880F991FBA95E1F7029665E0E7
:1004600070E00E94500A403108F04FE0CB01B90122
:100470000E9430010895A0E0B0E0E1E4F2E00C94C5
:10048000B50AB090010180914301882361F0609129
:100490004401662341F08FEF70E040E00E94E501E7
:1004A0001092440134C1C0ECDDE5AA24A39414E009
:1004B000712E00ED17E0B4E0EB2EF12CA4EFCA2E64
:1004C000A1E0DA2EFFE08F2E912C0E94BF00209138
:1004D0004101309142012F5F3F4F30934201209301
:1004E00041018636F1F18736CCF4823609F4AFC08B
:1004F00083367CF48E3349F18F333CF4813209F436
:1005000087C08C3309F09BC022C0813609F097C0A8
:100510009BC0843601F185360CF51BC08F3609F47B
:1005200047C0803744F48C3611F18D3661F187363F
:1005300009F085C019C0843709F444C0863709F42E
:1005400060C0823709F07BC039C0B394BECFBA9483
:10055000BCCFEE2435C0EE2482E07BC0EE2484E0E4
:1005600078C0EE2485E075C0EE2487E072C00E945A
:10057000E100BC019093030180930201809104018A
:100580009091050137C00E94BF008C3619F410927B
:10059000430104C0A09243011092440180914101A3
:1005A00090914201019690934201809341018DCF39
:1005B0000E94E100B82E8093010187CFEE24E394DE
:1005C00080E047C00E94E100BC01CE010E94500AB9
:1005D000CB01880F991F53E0660F771F5A95E1F7FB
:1005E000860F971F9093050180930401609102018B
:1005F000709103010E94500A7093070160930601F5
:1006000064CF0E94E10090930901809308015DCFBF
:10061000709201011093050100930401F09203010F
:10062000E0920201D0920701C09206019092090166
:10063000809208011092430144E0B42E46CF1092FC
:1006400042011092410163C0EE2489E002C0EE2411
:100650008BE09CE0B99EB02C1124B80E0E94BF0024
:100660008B3211F08332B9F48091410190914201B3
:1006700001969093420180934101B394EFCF809112
:100680004101909142010196909342018093410172
:10069000BA940E94BF008D3291F3C0910601D091AF
:1006A00007018153883058F4C0910401D0910501AD
:1006B0000E94E100BC01CE010E94500AEB018E01B4
:1006C0000BC08091410190914201019690934201AB
:1006D00080934101C00FD11F169507950E94BF005E
:1006E0008E3279F380914301882339F0CE019695BB
:1006F000879580934401C81BD109EE2011F0BB24DB
:10070000BA948B2DBE01409108010E94E501CDB73E
:10071000DEB7EDE00C94D10A1F920F920FB60F9244
:100720000BB60F9211242F933F934F935F936F93C8
:100730007F938F939F93AF93BF93EF93FF9380919A
:100740004701909148019C0121503040309348016D
:1007500020934701009711F510926F0078948091D3
:100760008100887F81608093810080E197E290938F
:1007700089008093880010928B0010928A0081E09B
:10078000809300018091410190914201009731F0E6
:1007900080914601882311F40E943B02FF91EF9162
:1007A000BF91AF919F918F917F916F915F914F9189
:1007B0003F912F910F900BBE0F900FBE0F901F9087
:1007C000189510926F00909342018093410181E04F
:1007D00080934501109244010E943B0208950E94BB
:1007E000E103089580E090E0089581E090E06F9348
:1007F00064E06A95F1F76F910197C9F708950F9337
:100800001F93CF93DF9317B13D982898299AC0E0A2
:10081000D0E00E94F5032A9A0E94F50306B12A98B7
:100820000E94F5032A9A0E94F5032A98249605FF50
:1008300010C09E0140E050E080914D0190914E012A
:10084000A0914F01B0915001281739074A075B0763
:1008500000F39E0140E050E080914D0190914E01E7
:10086000A0914F01B0915001281739074A075B0743
:1008700028F082E390E0A0E0B0E004C080E395E7D8
:10088000A0E0B0E080934D0190934E01A0934F0102
:10089000B093500117B9DF91CF911F910F91089537
:1008A00028B190E08F709070880F991F880F991F62
:1008B000237C282B28B92A9A0E94F5032A980E94A3
:1008C000F5030895A2E0B0E0E8E6F4E00C94BD0A78
:1008D000182F4A8369830E94DD040E94FF03F7B04A
:1008E00008B1299869814A81662311F0289A01C0CC
:1008F000289887B18C6387B9413029F0812F829580
:100900008F700E945004812F8F700E945004F7B89E
:1009100008B92296E5E00C94D90A60E042E00E9412
:100920006204089561E042E00E946204089560E07C
:1009300041E00E94620408953D98459A80E395E75E
:10094000A0E0B0E080934D0190934E01A0934F0141
:10095000B0935001209A219A229A8EE190E00E9451
:100960009E0883E00E94970486E090E00E949E0823
:1009700083E00E94970482E090E00E949E0883E05A
:100980000E94970482E090E00E949E0882E00E940C
:10099000970482E090E00E949E0888E20E948D0405
:1009A00088E00E948D0481E00E948D0486E00E9410
:1009B0008D048CE00E948D0408958091510188235C
:1009C00029F481E0809351010E949C04089581E004
:1009D0000E948D048091490190914A01009711F184
:1009E000A0E0B0E208C0E0914901F0914A01E20FB5
:1009F000F31FB083AF5F2A2F30E08091220190E097
:100A000001976091230170E0869FA001879F500DA0
:100A1000969F500D1124241735072CF310924C018A
:100A200010924B0108950E94E7040895A5E0B0E0FC
:100A3000ECE1F5E00C94BF0A182F80E8898380EC84
:100A40008A8384E98B8384ED8C83FE01E60FF11D9C
:100A50008181810F6D830E948D0410934C016D8103
:100A600060934B012596E3E00C94DB0A0E94160587
:100A70000895A0E0B0E0EFE3F5E00C94BA0AD82EB8
:100A80008091490190914A01009709F4FAC02D2DF7
:100A90002A3009F443C02830C9F480914C018150B8
:100AA00080934C018F3F51F480914B018150809392
:100AB0004B0180912301815080934C0180914B0127
:100AC0008F3F09F0D8C010924B01D3C08D2D0E94EA
:100AD000920480914B018823B9F090E001974091F6
:100AE000230150E0849F9001859F300D949F300D2D
:100AF000112480914C01E0914901F0914A01E20FEB
:100B0000F31FE80FF11DD08280914C018F5F80931D
:100B10004C0190912301891709F0B3C040914B011A
:100B2000242F30E08091220190E0019728173907A7
:100B300009F09CC0C0E0D0E041C080E06C2F0E9472
:100B40001605CC248E010F5F1F4F33C0EC2CFF2401
:100B500030E0C29FC001C39F900DD29F900D112421
:100B6000E0914901F0914A01EE0DFF1DE80FF91FD8
:100B700080810E9492048091490190914A012091C4
:100B8000230130E0C29FF001C39FF00DD29FF00D12
:100B900011248E0D9F1DE80FF91F029FD001039FA6
:100BA000B00D129FB00D1124A80FB91F8C91808336
:100BB000C39420912301C21648F2E80160912201FA
:100BC000862F90E00297C817D9070CF4B6CF623091
:100BD000E0F1625080E00E94160500E010E231C0B2
:100BE000C02FD0E08091220190E0029750E0849FD6
:100BF0009001859F300D949F300D1124E0914901A3
:100C0000F0914A01EC0FFD1FE20FF31F80810E945B
:100C100092048091220190E002974091230150E0DC
:100C2000849F9001859F300D949F300D1124E09199
:100C30004901F0914A01EC0FFD1FE20FF31F1083F1
:100C40000F5F40912301041758F260912201615017
:100C500080E00E94160510E004C080E20E94920429
:100C60001F5F809123011817C0F303C04F5F4093AB
:100C70004B0110924C0180914C0160914B010E94FC
:100C800016052D2D332727FD3095C901CDB7DEB7C9
:100C9000E8E00C94D60A8091490190914A010097AE
:100CA00011F00E948E0B2091220130E02150304043
:100CB0008091230190E0AC01249FC001259F900DFD
:100CC000349F900D11240E94F60A90934A0180935C
:100CD0004901009721F1A0E0B0E208C0E09149018C
:100CE000F0914A01E20FF31FB083AF5F2A2F30E08B
:100CF0008091220190E001976091230170E0869F2E
:100D0000A001879F500D969F500D11242417350781
:100D10002CF389E395E062EF73E00E941D0C0895C7
:100D20000E944B060895FC011182108213821282E8
:100D3000158214821682683068F489E290E091830B
:100D400080838BE290E0938382838AE290E09583B4
:100D5000848323C0603180F483E290E091838083B8
:100D600085E290E09383828384E290E0958384839C
:100D700070E06850704011C06831C0F486E290E0C5
:100D80009183808388E290E09383828387E290E07E
:100D90009583848370E06051704081E090E002C0F0
:100DA000880F991F6A95E2F7868308956032C0F430
:100DB00080E290E09183808382E290E0938382835B
:100DC00081E290E0958384832FE130E0261B310996
:100DD00081E090E002C0880F991F2A95E2F7868390
:100DE0000895FC01A481B5818681662321F09C9140
:100DF000982B9C9308959C91809589238C930895BA
:100E0000FC016F3F31F4A281B3818C9196818927D7
:100E10000CC0A281B3818681662321F09C91982B1E
:100E20009C9308959C91809589238C930895A7E0C5
:100E3000B0E0EDE1F7E00C94BD0A282FF62E8E010C
:100E40000F5F1F4FC801622F0E949306C8016F2DCC
:100E50000E940007C80161E00E94F1062796E5E0C4
:100E60000C94D90A83E08093B00082E08093B100B3
:100E7000E4EBF0E0108280818093B30087E160E0D2
:100E80000E94170786E160E00E94170787E060E094
:100E90000E94170786E060E00E941707089580917E
:100EA0005201882329F481E0809352010E94320785
:100EB0000895CF93DF93EC010E944F07D7FF05C041
:100EC000D095C195DF4F91E001C090E0CF3FD105B3
:100ED00019F014F0CFEFD0E0C093B300209731F4B5
:100EE0008091B0008F778093B0000EC08091B000E9
:100EF00080688093B000992319F087E161E002C017
:100F000087E160E00E941707DF91CF9108950E946A
:100F10005907089587B1837D87B988B18C6288B9F4
:100F200085E090E06F9364E06A95F1F76F91019727
:100F3000C9F7089580915301882329F481E08093B3
:100F400053010E948A070895BF92CF92DF92EF92D9
:100F5000FF920F931F93B82EC6B0DC2CD0940E9442
:100F6000D8087B018C010E949A0780915F01813033
:100F700021F1813038F0823009F445C0833009F026
:100F800081C063C02B2D30E04D2D50E04095509531
:100F9000242335232115310509F474C0CB20C092D8
:100FA0005A01E0925B01F0925C0100935D011093A5
:100FB0005E0181E080935F0165C080915B0190914B
:100FC0005C01A0915D01B0915E01E81AF90A0A0B7B
:100FD0001B0B8FE0E816F1040105110508F452C05F
:100FE00040915A018D2D90E080959095242F30E00E
:100FF00082239323009731F182E080935F01C42222
:10100000C0925A013FC040915A018D2D842371F046
:1010100093E090935F0180935A01E0925B01F0921C
:101020005C0100935D0110935E012CC050E08B2D9C
:1010300090E02D2D30E020953095822393234817A2
:10104000590701F110925F011DC080915B019091E1
:101050005C01A0915D01B0915E01E81AF90A0A0BEA
:101060001B0B8FE0E816F1040105110558F0809183
:101070005A018D2119F010925F0105C092E0909302
:101080005F0101C080E01F910F91FF90EF90DF9012
:10109000CF90BF9008950E94A40708956F9364E0D5
:1010A0006A95F1F76F910197C9F708952F928F9381
:1010B0009F932FB680916101909162010196809378
:1010C00061019093620190E080916301891F809398
:1010D0006301909169019C5F90936901809168011F
:1010E00080519742C0F0909369018093680180918C
:1010F000640190916501019680936401909365016C
:1011000090E080916601891F80936601809167015C
:10111000891F809367012FBE9F918F912F90189503
:10112000CF93DF93EC0105C088EE93E00E944E0858
:1011300021972097C9F7DF91CF9108950E949008D9
:101140000895E0E7F0E080818E7F8083A0EBB0E03F
:101150008C9183608C93A1EBB0E08C91807F8C9319
:101160008C9182608C93B89A80818160808378941E
:10117000089580916A01882329F481E080936A01AF
:101180000E94A10808950E94B908E0E7F0E080817C
:101190008E7F8083209164013091650140916601CA
:1011A00050916701808181608083B901CA010895EF
:1011B0000E94C3080895A7E0B0E0E1EEF8E00C94C7
:1011C000C00A682FCE0101960E94930689819A81F8
:1011D0008032910531F480916B009F81892B80933F
:1011E0006B0089819A818332910531F480916C0082
:1011F0009F81892B80936C0089819A818632910529
:1012000031F480916D009F81892B80936D008981DD
:101210009A818932910531F4809173009F81892BE5
:1012200080937300ED81FE8190818F818095892369
:1012300080838FEF809368002796E2E00C94DC0AAD
:10124000A7E0B0E0E6E2F9E00C94C00A682FCE0116
:1012500001960E949306E981FA8190818F8189230A
:101260002796E2E00C94DC0A1F920F920FB60F92C1
:101270000BB60F921124FF920F931F932F933F935E
:101280004F935F936F937F938F939F93AF93BF938E
:10129000EF93FF93809171010E942009F82E8091B5
:1012A00073010E942009182F809172010E94200969
:1012B000082F809174010E9420094091760160916D
:1012C00075015091780190917701F41651F02091B9
:1012D0006F01309170012F5F3F4F30937001209369
:1012E0006F01061751F020916F013091700121506C
:1012F00030403093700120936F01151751F0209109
:101300006D0130916E012F5F3F4F30936E0120933E
:101310006D01891751F020916D0130916E012150BE
:10132000304030936E0120936D01EF2DF0E0772770
:1013300067FD7095E617F70759F0602F70E05527A5
:1013400047FD50956417750719F021E020936C0153
:10135000412F50E0292F332727FD3095421753079F
:1013600069F0482F50E020917801332727FD309510
:101370004217530719F091E090936B01F0927501B9
:10138000009376011093770180937801FF91EF919C
:10139000BF91AF919F918F917F916F915F914F918D
:1013A0003F912F911F910F91FF900F900BBE0F90C7
:1013B0000FBE0F901F901895A3E0B0E0E2EEF9E0A9
:1013C0000C94C00A80937101609372014093730181
:1013D00020937401F8942B834A8369830E94DB086D
:1013E0006981862F0E94DB084A81842F0E94DB08D6
:1013F0002B81822F0E94DB081092700110926F01E6
:1014000010926E0110926D0110926C0110926B019E
:10141000809171010E942009809375018091720171
:101420000E94200980937601809173010E94200917
:1014300080937701809174010E9420098093780144
:101440008FEF8BBB78942396E2E00C94DC0A0E9429
:10145000DC090895F89480916F019091700178945F
:1014600008950E942A0A0895DB018F939F930E949A
:10147000A50ABF91AF91A29F800D911DA39F900DD2
:10148000B29F900D11240895991B79E004C0991F13
:10149000961708F0961B881F7A95C9F780950895CE
:1014A000AA1BBB1B51E107C0AA1FBB1FA617B7078A
:1014B00010F0A61BB70B881F991F5A95A9F78095A6
:1014C0009095BC01CD010895A1E21A2EAA1BBB1B69
:1014D000FD010DC0AA1FBB1FEE1FFF1FA217B30700
:1014E000E407F50720F0A21BB30BE40BF50B661F16
:1014F000771F881F991F1A9469F7609570958095DA
:1015000090959B01AC01BD01CF010895052E97FB7D
:101510001EF400940E949D0A57FD07D00E94640AA1
:1015200007FC03D04EF40C949D0A509540953095DD
:1015300021953F4F4F4F5F4F08959095809570953F
:1015400061957F4F8F4F9F4F08950E94E70AA59F97
:10155000900DB49F900DA49F800D911D11240895AE
:101560002F923F924F925F926F927F928F929F92B3
:10157000AF92BF92CF92DF92EF92FF920F931F93A1
:10158000CF93DF93CDB7DEB7CA1BDB0B0FB6F89452
:10159000DEBF0FBECDBF09942A88398848885F8492
:1015A0006E847D848C849B84AA84B984C884DF8003
:1015B000EE80FD800C811B81AA81B981CE0FD11DE7
:1015C0000FB6F894DEBF0FBECDBFED010895A29F08
:1015D000B001B39FC001A39F700D811D1124911D07
:1015E000B29F700D811D1124911D0895CF93DF933B
:1015F0008230910510F482E090E0E0917B01F0915F
:101600007C0120E030E0A0E0B0E0309739F140818B
:10161000518148175907B8F04817590771F482816A
:101620009381109729F013969C938E9312972CC058
:1016300090937C0180937B0127C02115310531F007
:101640004217530718F0A901DB0101C0EF019A010D
:10165000BD01DF010280F381E02DD7CF21153105D7
:10166000F9F0281B390B2430310580F48A819B81E5
:101670006115710521F0FB019383828304C090936F
:101680007C0180937B01FE01329644C0FE01E20F93
:10169000F31F8193919322503109398328833AC0F3
:1016A0002091790130917A01232B41F42091260178
:1016B0003091270130937A01209379012091240100
:1016C000309125012115310541F42DB73EB74091E8
:1016D000280150912901241B350BE0917901F091EB
:1016E0007A01E217F307A0F42E1B3F0B28173907E6
:1016F00078F0AC014E5F5F4F2417350748F04E0F6E
:101700005F1F50937A01409379018193919302C0B6
:10171000E0E0F0E0CF01DF91CF910895CF93DF9328
:10172000009709F487C0FC01329713821282C0919E
:101730007B01D0917C01209781F420813181280F99
:10174000391F8091790190917A018217930779F579
:10175000F0937A01E09379016DC0DE0120E030E082
:10176000AE17BF0750F412964D915C9113979D01EF
:101770004115510509F1DA01F3CFB383A28340810A
:101780005181840F951F8A179B0771F48D919C914D
:101790001197840F951F02969183808312968D91E5
:1017A0009C911397938382832115310529F4F0933B
:1017B0007C01E0937B013EC0D9011396FC93EE932C
:1017C00012974D915D91A40FB51FEA17FB0779F4AD
:1017D00080819181840F951F0296D90111969C9367
:1017E0008E938281938113969C938E931297E0E05F
:1017F000F0E08A819B81009719F0FE01EC01F9CF9E
:10180000CE01029628813981820F931F20917901A0
:1018100030917A012817390769F4309729F410922A
:101820007C0110927B0102C013821282D0937A0154
:10183000C0937901DF91CF9108950F931F93CF93B8
:10184000DF93EC018B01009731F46115710519F4F8
:1018500080E090E038C06EE070E081E090E00E94AF
:10186000750EFC010097A1F380E883830115110533
:1018700071F01387028781E8838380917D019091C5
:101880007E01892B21F4F0937E01E0937D01209766
:10189000C9F0D187C08783818260838380917F0173
:1018A00090918001892B71F4F0938001E0937F0186
:1018B0008091810190918201892B21F4F093820122
:1018C000E0938101CF01DF91CF911F910F91089596
:1018D000CF93DF93CDB7DEB7FE013596619171915D
:1018E000AF0180917F01909180010E947A0CDF917D
:1018F000CF9108952F923F924F925F926F927F9275
:101900008F929F92AF92BF92CF92DF92EF92FF920F
:101910000F931F93CF93DF93CDB7DEB72C970FB6FE
:10192000F894DEBF0FBECDBF7C016B018A01FC01C4
:1019300017821682838181FFBDC1CE0101964C01C1
:10194000F7019381F60193FD859193FF81916F01DA
:10195000882309F4ABC1853239F493FD859193FF57
:1019600081916F01853229F4B70190E00E94AE0E9B
:10197000E7CF512C312C20E02032A0F48B3269F0DB
:1019800030F4803259F0833269F420612CC08D32FA
:1019900039F0803339F4216026C02260246023C0EE
:1019A000286021C027FD27C030ED380F3A3078F489
:1019B00026FF06C0FAE05F9E300D1124532E13C09F
:1019C0008AE0389E300D1124332E20620CC08E32F6
:1019D00021F426FD6BC1206406C08C3611F420680A
:1019E00002C0883641F4F60193FD859193FF819101
:1019F0006F018111C1CF982F9F7D9554933028F4AA
:101A00000C5F1F4FFFE3F9830DC0833631F083373E
:101A100071F0833509F05BC022C0F80180818983B1
:101A20000E5F1F4F44244394512C540115C03801BC
:101A3000F2E06F0E711CF801A080B18026FF03C098
:101A4000652D70E002C06FEF7FEFC5012C870E940B
:101A5000A30E2C0183012C852F77222E17C038016D
:101A6000F2E06F0E711CF801A080B18026FF03C068
:101A7000652D70E002C06FEF7FEFC5012C870E94DB
:101A8000910E2C012C852068222E830123FC1BC083
:101A9000832D90E048165906B0F4B70180E290E03B
:101AA0000E94AE0E3A94F4CFF50127FC859127FEF3
:101AB00081915F01B70190E00E94AE0E31103A941F
:101AC000F1E04F1A51084114510471F7E5C0843612
:101AD00011F0893639F5F80127FF07C0608171815F
:101AE000828193810C5F1F4F08C0608171818827BC
:101AF00077FD8095982F0E5F1F4F2F76B22E97FFA0
:101B000009C090958095709561957F4F8F4F9F4F3D
:101B10002068B22E2AE030E0A4010E94E00EA82E38
:101B2000A81844C0853729F42F7EB22E2AE030E071
:101B300025C0F22FF97FBF2E8F36C1F018F48835FB
:101B400079F0B4C0803719F0883721F0AFC02F2F5B
:101B50002061B22EB4FE0DC08B2D8460B82E09C05A
:101B600024FF0AC09F2F9660B92E06C028E030E0FF
:101B700005C020E130E002C020E132E0F801B7FE0C
:101B800007C060817181828193810C5F1F4F06C005
:101B90006081718180E090E00E5F1F4FA4010E9480
:101BA000E00EA82EA818FB2DFF77BF2EB6FE0BC0A7
:101BB0002B2D2E7FA51450F4B4FE0AC0B2FC08C031
:101BC0002B2D2E7E05C07A2C2B2D03C07A2C01C024
:101BD000752C24FF0DC0FE01EA0DF11D80818033BC
:101BE00011F4297E09C022FF06C07394739404C0C7
:101BF000822F867809F0739423FD13C020FF06C05E
:101C00005A2C731418F4530C5718732C731468F46B
:101C1000B70180E290E02C870E94AE0E73942C8571
:101C2000F5CF731410F4371801C0312C24FF12C003
:101C3000B70180E390E02C870E94AE0E2C8522FF36
:101C400017C021FF03C088E590E002C088E790E05C
:101C5000B7010CC0822F867859F021FD02C080E2C6
:101C600001C08BE227FD8DE2B70190E00E94AE0E2D
:101C7000A51438F4B70180E390E00E94AE0E5A94A8
:101C8000F7CFAA94F401EA0DF11D8081B70190E02D
:101C90000E94AE0EA110F5CF332009F451CEB7014A
:101CA00080E290E00E94AE0E3A94F6CFF701868172
:101CB000978102C08FEF9FEF2C960FB6F894DEBF8E
:101CC0000FBECDBFDF91CF911F910F91FF90EF908D
:101CD000DF90CF90BF90AF909F908F907F906F904C
:101CE0005F904F903F902F9008950F931F93CF9345
:101CF000DF93869F8001879F100D969F100D112402
:101D0000C8010E94F60AEC01009729F0A80160E0E2
:101D100070E00E949C0ECE01DF91CF911F910F9138
:101D20000895FC010590615070400110D8F780952E
:101D300090958E0F9F1F0895DC0101C06D93415057
:101D40005040E0F70895FC0161507040019001108F
:101D5000D8F7809590958E0F9F1F08950F931F932E
:101D6000CF93DF93182F092FEB018B8181FD03C0E7
:101D70008FEF9FEF20C082FF10C04E815F812C81CA
:101D80003D81421753077CF4E881F9819F012F5F61
:101D90003F4F39832883108306C0E885F985812F5A
:101DA0000995892B29F72E813F812F5F3F4F3F8374
:101DB0002E83812F902FDF91CF911F910F91089546
:101DC000FA01AA27283051F1203181F1E8946F936C
:101DD0006E7F6E5F7F4F8F4F9F4FAF4FB1E03ED012
:101DE000B4E03CD0670F781F891F9A1FA11D680FB0
:101DF000791F8A1F911DA11D6A0F711D811D911DE3
:101E0000A11D20D009F468943F912AE0269F112457
:101E10003019305D3193DEF6CF010895462F4770BB
:101E2000405D4193B3E00FD0C9F7F6CF462F4F7016
:101E3000405D4A3318F0495D31FD4052419302D074
:101E4000A9F7EACFB4E0A69597958795779567951A
:101E5000BA95C9F700976105710508959B01AC011A
:101E60000A2E06945795479537952795BA95C9F741
:101E7000620F731F841F951FA01D0895F894FFCF54
:101E800001040400D007F4010F009C01B501CF014B
:101E9000EA0107022602470269028E02B502DE024B
:101EA0000A03021000008301200053706565643A44
:101EB00025640A00456E636F6465723A256400000C
:00000001FF
