:100000000C944B000C946A000C946A000C946A00E7
:100010000C946A000C946A000C946A000C946A00B8
:100020000C946A000C946A000C946A000C94D50B32
:100030000C946A000C946A000C946A000C94E90316
:100040000C946A000C946A000C946A000C946A0088
:100050000C949E090C947B0B0C946A000C946A001F
:100060000C946A000C946A000C946A000C946A0068
:100070000C94C9090C94A40B0C946A000C946A00AB
:100080000C946A000C946A000C946A003E67333248
:100090003E3E6333320011241FBECFEFD0E4DEBFFB
:1000A000CDBF11E0A0E0B1E0E2E4F4E200E00BBF7C
:1000B00002C007900D92AA37B107D9F721E0AAE74D
:1000C000B1E001C01D92A83FB207E1F70E94BA005B
:1000D0000C941F120C94000020914A0130914B01A6
:1000E000280F391F12161306C4F430934B012093C6
:1000F0004A0161E088E00E94930580914B018F9353
:1001000080914A018F938CE491E09F938F930E949A
:100110001C0F0F900F900F900F9008958B3219F0D5
:100120008D3231F00895809148019091490107C0C6
:1001300080914801909149019195819591090C9484
:100140006C0082E00E94B407E091AD018E1789F047
:10015000F0E0E255FE4F80810E948E008091AD015B
:100160008F3119F41092AD01ECCF8F5F8093AD0108
:10017000E8CF089540E855E260E070E082E00E9438
:10018000BD0A40E26EEA71E082E00E949B098CE8C1
:1001900090E00E944C040E94ED060E94700583E5E9
:1001A00091E09F938F930E941C0F88EE93E00E9432
:1001B0001D0C0E94700589E691E00E942E0F81E7D8
:1001C00091E09F938F930E941C0F8AB18C608AB933
:1001D0000E94710C0F900F900F900F90D1E0C0E033
:1001E00011E00E94780B0E94A1008CE20E94B107EE
:1001F000843011F4C12703C0803209F4D127DD23F4
:1002000081F30E94570C20914A0130914B01690102
:10021000EE24D7FCE094FE2C6C157D058E059F0521
:1002200000F3C11102C098E001C094E08BB18927AE
:100230008BB90E94710CD5CF90917F01E0917B0129
:10024000F0917C01992311F0849101C08081282FC5
:1002500021542A3110F4805E0895803271F4209187
:100260007B0130917C01A9014F5F5F4F50937C016E
:1002700040937B012115310509F70895EF92FF9214
:10028000CF93DF930E941C01C0E0D0E01BC09E0111
:10029000220F331F93E0CC0FDD1F9A95E1F7C20FB9
:1002A000D31F992787FD9095C80FD91FE09780919C
:1002B0007B0190917C01019690937C0180937B015E
:1002C0000E941C01982F90539A3008F3CE01DF91C1
:1002D000CF91FF90EF90089510926F0083E280938A
:1002E000800081E1809381001092820080E197E29A
:1002F000909389008093880010928B0010928A005E
:10030000549A7894089580917A01882329F481E0A1
:1003100080937A010E946C010895A0E0B0E0E3E9C7
:10032000F1E00C946A0D8C015B01E42E0E948301C4
:100330001092000117FF04C01F77AAE0FA2E02C036
:10034000FF24F394C0908100DD2428EFC222DD2435
:1003500088EC3F2D389FC001112480179107D8F4F5
:10036000E80167E20131160710F0C0E1D7E2BE01F3
:100370007695679580E090E06058794687469F4F74
:100380009E0140E050E00E94180D890181E090E05C
:10039000C82AD92A2CC098E2F99E902D112480E019
:1003A000892EE4014E01982EE4018016910608F48E
:1003B000E801BE01769567959E0140E050E08F2DE3
:1003C0008A3039F480E090E0605E734481449F4F4E
:1003D00006C080E090E060537D4E8C4E9F4F0E949F
:1003E000180D890152E0852E912CC828D9282F2D6F
:1003F0002A3039F4CE0105966AE070E00E94040DBF
:10040000EB0133E0C83ED30779F0BE0180E090E015
:10041000950140E050E00E94E80C28EE33E040E017
:1004200050E00E943A0D01C0950110926F00C092F9
:1004300081001093890000938800409188005091BA
:1004400089006E2D603108F06FE080E190E0861B3E
:100450009109BA0102C0769567958A95E2F7709383
:100460008B0060938A00309382012093810186B3D0
:100470008FEF86BB81E080936F00CDB7DEB7ECE0F5
:100480000C94860D9B018F3F11F0442329F488EED4
:1004900093E0B90140E049C0813130F0582F50510C
:1004A000503618F05FE501C050E0852F6CE00E94E7
:1004B000F80CA82FB0E0E4EFFFEFAE9FB001AF9FC4
:1004C000700DBE9F700D1124650F711D6C3071058C
:1004D00040F4FB01EE0FFF1FE65FFE4F608171816C
:1004E00002C060E070E0873081F0082E02C0660F25
:1004F000771F0A94E2F7823028F0CB0105966AE074
:1005000070E00CC0605070480BC0CB01B6E0880FA3
:10051000991FBA95E1F7029665E070E00E94040D1C
:10052000403108F04FE0CB01B9010E948D010895E0
:10053000A0E0B0E0EEE9F2E00C94690DB0900101AA
:1005400080917D01882361F060917E01662341F0F6
:100550008FEF70E040E00E94420210927E0134C1B1
:10056000C0ECDDE5AA24A39414E0712E00ED17E0A1
:10057000B4E0EB2EF12CA4EFCA2EA1E0DA2EFFE0BE
:100580008F2E912C0E941C0120917B0130917C01C7
:100590002F5F3F4F30937C0120937B018636F1F132
:1005A0008736CCF4823609F4AFC083367CF48E33C0
:1005B00049F18F333CF4813209F487C08C3309F060
:1005C0009BC022C0813609F097C09BC0843601F1E0
:1005D00085360CF51BC08F3609F447C0803744F4CC
:1005E0008C3611F18D3661F1873609F085C019C05E
:1005F000843709F444C0863709F460C0823709F0B3
:100600007BC039C0B394BECFBA94BCCFEE2435C002
:10061000EE2482E07BC0EE2484E078C0EE2485E006
:1006200075C0EE2487E072C00E943E01BC01909329
:10063000030180930201809104019091050137C06C
:100640000E941C018C3619F410927D0104C0A09206
:100650007D0110927E0180917B0190917C01019639
:1006600090937C0180937B018DCF0E943E01B82E38
:100670008093010187CFEE24E39480E047C00E947D
:100680003E01BC01CE010E94040DCB01880F991FD1
:1006900053E0660F771F5A95E1F7860F971F9093E7
:1006A00005018093040160910201709103010E9491
:1006B000040D709307016093060164CF0E943E0110
:1006C00090930901809308015DCF7092010110930E
:1006D000050100930401F0920301E0920201D0921F
:1006E0000701C092060190920901809208011092C0
:1006F0007D0144E0B42E46CF10927C0110927B0124
:1007000063C0EE2489E002C0EE248BE09CE0B99E39
:10071000B02C1124B80E0E941C018B3211F08332D0
:10072000B9F480917B0190917C01019690937C01BA
:1007300080937B01B394EFCF80917B0190917C01FA
:10074000019690937C0180937B01BA940E941C01D6
:100750008D3291F3C0910601D09107018153883009
:1007600058F4C0910401D09105010E943E01BC01E2
:10077000CE010E94040DEB018E010BC080917B0124
:1007800090917C01019690937C0180937B01C00F36
:10079000D11F169507950E941C018E3279F3809126
:1007A0007D01882339F0CE019695879580937E014F
:1007B000C81BD109EE2011F0BB24BA948B2DBE01C9
:1007C000409108010E944202CDB7DEB7EDE00C94E3
:1007D000850D1F920F920FB60F920BB60F92112438
:1007E0002F933F934F935F936F937F938F939F9339
:1007F000AF93BF93EF93FF9380918101909182011A
:100800009C01215030403093820120938101009758
:1008100011F510926F00789480918100887F81603B
:100820008093810080E197E2909389008093880013
:1008300010928B0010928A0081E0809300018091D9
:100840007B0190917C01009731F080918001882399
:1008500011F40E949802FF91EF91BF91AF919F9187
:100860008F917F916F915F914F913F912F910F9059
:100870000BBE0F900FBE0F901F90189510926F0037
:1008800090937C0180937B0181E080937F011092A3
:100890007E010E94980208950E943E04089580E01F
:1008A00090E0089581E090E06F9364E06A95F1F73D
:1008B0006F910197C9F708950F931F93CF93DF931B
:1008C00017B13D982898299AC0E0D0E00E945204C0
:1008D0002A9A0E94520406B12A980E9452042A9A27
:1008E0000E9452042A98249605FF10C09E0140E001
:1008F00050E08091870190918801A0918901B09189
:100900008A01281739074A075B0700F39E0140E078
:1009100050E08091870190918801A0918901B09168
:100920008A01281739074A075B0728F082E390E01D
:10093000A0E0B0E004C080E395E7A0E0B0E08093E1
:10094000870190938801A0938901B0938A0117B918
:10095000DF91CF911F910F91089528B190E08F7092
:100960009070880F991F880F991F237C282B28B916
:100970002A9A0E9452042A980E9452040895A2E0E2
:10098000B0E0E5ECF4E00C94710D182F4A83698314
:100990000E943A050E945C04F7B008B12998698169
:1009A0004A81662311F0289A01C0289887B18C6388
:1009B00087B9413029F0812F82958F700E94AD0454
:1009C000812F8F700E94AD04F7B808B92296E5E038
:1009D0000C948D0D60E042E00E94BF04089561E038
:1009E00042E00E94BF04089560E041E00E94BF041D
:1009F00008953D98459A80E395E7A0E0B0E08093A4
:100A0000870190938801A0938901B0938A01209A6D
:100A1000219A229A8EE190E00E941D0C83E00E94B0
:100A2000F40486E090E00E941D0C83E00E94F40430
:100A300082E090E00E941D0C83E00E94F40482E0BA
:100A400090E00E941D0C82E00E94F40482E090E09D
:100A50000E941D0C88E20E94EA0488E00E94EA04D9
:100A600081E00E94EA0486E00E94EA048CE00E9491
:100A7000EA04089580918B01882329F481E0809312
:100A80008B010E94F904089581E00E94EA0480919C
:100A9000830190918401009711F1A0E0B0E208C0B9
:100AA000E0918301F0918401E20FF31FB083AF5F07
:100AB0002A2F30E08091220190E00197609123017C
:100AC00070E0869FA001879F500D969F500D1124C6
:100AD000241735072CF31092860110928501089592
:100AE0000E9444050895A5E0B0E0E9E7F5E00C9424
:100AF000730D182F80E8898380EC8A8384E98B83C7
:100B000084ED8C83FE01E60FF11D8181810F6D83E1
:100B10000E94EA04109386016D81609385012596F9
:100B2000E3E00C948F0D0E9473050895A0E0B0E0FF
:100B3000ECE9F5E00C946E0DD82E80918301909134
:100B40008401009709F4FAC02D2D2A3009F443C01E
:100B50002830C9F4809186018150809386018F3FAF
:100B600051F480918501815080938501809123010A
:100B7000815080938601809185018F3F09F0D8C014
:100B800010928501D3C08D2D0E94EF0480918501C4
:100B90008823B9F090E001974091230150E0849FB1
:100BA0009001859F300D949F300D11248091860116
:100BB000E0918301F0918401E20FF31FE80FF11D32
:100BC000D082809186018F5F80938601909123016E
:100BD000891709F0B3C040918501242F30E080913E
:100BE000220190E001972817390709F09CC0C0E066
:100BF000D0E041C080E06C2F0E947305CC248E01B0
:100C00000F5F1F4F33C0EC2CFF2430E0C29FC001A8
:100C1000C39F900DD29F900D1124E0918301F0911C
:100C20008401EE0DFF1DE80FF91F80810E94EF0483
:100C300080918301909184012091230130E0C29F33
:100C4000F001C39FF00DD29FF00D11248E0D9F1D5A
:100C5000E80FF91F029FD001039FB00D129FB00D46
:100C60001124A80FB91F8C918083C3942091230174
:100C7000C21648F2E80160912201862F90E00297A7
:100C8000C817D9070CF4B6CF6230E0F1625080E0AB
:100C90000E94730500E010E231C0C02FD0E08091C7
:100CA000220190E0029750E0849F9001859F300DD3
:100CB000949F300D1124E0918301F0918401EC0F99
:100CC000FD1FE20FF31F80810E94EF04809122013B
:100CD00090E002974091230150E0849F9001859F0E
:100CE000300D949F300D1124E0918301F091840127
:100CF000EC0FFD1FE20FF31F10830F5F40912301E4
:100D0000041758F260912201615080E00E9473053F
:100D100010E004C080E20E94EF041F5F8091230175
:100D20001817C0F303C04F5F4093850110928601EE
:100D300080918601609185010E9473052D2D3327D6
:100D400027FD3095C901CDB7DEB7E8E00C948A0DD8
:100D50008091830190918401009711F00E94420ECE
:100D60002091220130E0215030408091230190E019
:100D7000AC01249FC001259F900D349F900D11243C
:100D80000E94AA0D9093840180938301009721F122
:100D9000A0E0B0E208C0E0918301F0918401E20F8D
:100DA000F31FB083AF5F2A2F30E08091220190E0E3
:100DB00001976091230170E0869FA001879F500DED
:100DC000969F500D1124241735072CF386E995E0E2
:100DD0006FE474E00E94D10E08950E94A806089561
:100DE00087B1837D87B988B18C6288B985E090E04E
:100DF0006F9364E06A95F1F76F910197C9F70895D1
:100E000080918C01882329F481E080938C010E94D9
:100E1000F0060895BF92CF92DF92EF92FF920F9368
:100E20001F93B82EC6B0DC2CD0940E94570C7B01C7
:100E30008C010E94000780919801813021F181305E
:100E400038F0823009F445C0833009F081C063C0B6
:100E50002B2D30E04D2D50E0409550952423352327
:100E60002115310509F474C0CB20C0929301E092A2
:100E70009401F0929501009396011093970181E0FF
:100E80008093980165C08091940190919501A09103
:100E90009601B0919701E81AF90A0A0B1B0B8FE033
:100EA000E816F1040105110508F452C040919301C0
:100EB0008D2D90E080959095242F30E08223932310
:100EC000009731F182E080939801C422C09293018F
:100ED0003FC0409193018D2D842371F093E0909356
:100EE000980180939301E0929401F0929501009310
:100EF0009601109397012CC050E08B2D90E02D2D82
:100F000030E020953095822393234817590701F14B
:100F1000109298011DC08091940190919501A0912B
:100F20009601B0919701E81AF90A0A0B1B0B8FE0A2
:100F3000E816F1040105110558F0809193018D2107
:100F400019F01092980105C092E09093980101C0A9
:100F500080E01F910F91FF90EF90DF90CF90BF90B6
:100F600008950E940A070895282F30E0F901EE0F36
:100F7000FF1F43E0220F331F4A95E1F7E20FF31FF3
:100F8000EC5DFE4F82810895282F30E0F901EE0FCD
:100F9000FF1FB3E0220F331FBA95E1F7E20FF31FF3
:100FA000EC5DFE4F408551854115510509F452C055
:100FB000282F30E0F901EE0FFF1F73E0220F331FDF
:100FC0007A95E1F7E20FF31FEC5DFE4F7281282F57
:100FD00030E0F901EE0FFF1FB3E0220F331FBA9587
:100FE000E1F7E20FF31FEC5DFE4F9481791790F566
:100FF000282F30E0F901EE0FFF1F73E0220F331F9F
:101000007A95E1F7E20FF31FEC5DFE4F9281490FF5
:10101000511DFA016083282F30E0F901EE0FFF1F08
:1010200053E0220F331F5A95E1F7E20FF31FEC5DF7
:10103000FE4F92819F5F282F30E0F901EE0FFF1FD6
:10104000B3E0220F331FBA95E1F7E20FF31FEC5D17
:10105000FE4F9283282F30E0F901EE0FFF1F73E05F
:10106000220F331F7A95E1F7E20FF31FEC5DFE4F7D
:101070004281282F30E0F901EE0FFF1F53E0220FCD
:10108000331F5A95E1F7E20FF31FEC5DFE4F948199
:10109000491701F5282F30E0F901EE0FFF1F93E00B
:1010A000220F331F9A95E1F7E20FF31FEC5DFE4F1D
:1010B0009581992379F0282F30E0F901EE0FFF1F79
:1010C000B3E0220F331FBA95E1F7E20FF31FEC5D97
:1010D000FE4F128208950F931F93182F823009F448
:1010E00075C0882319F4E1ECF0E002C0E9ECF0E00F
:1010F00080818F778083812F90E0FC01EE0FFF1FAE
:1011000003E0880F991F0A95E1F7E80FF91FEC5DDE
:10111000FE4F808591850097A9F1212F30E0F901DC
:10112000EE0FFF1FA3E0220F331FAA95E1F7E20F96
:10113000F31FEC5DFE4F9281212F30E0F901EE0F9D
:10114000FF1F63E0220F331F6A95E1F7E20FF31FE1
:10115000EC5DFE4F84819817A8F4112319F4E0EC9C
:10116000F0E002C0E8ECF0E0808187FF0BC01123C3
:1011700019F4E6ECF0E002C0EEECF0E06081812FC3
:101180000E94C407212F30E0F901EE0FFF1F43E05A
:10119000220F331F4A95E1F7E20FF31FEC5DFE4F7C
:1011A0008081882309F059C0112319F4E1ECF0E0A3
:1011B00002C0E9ECF0E08081806880834EC08091BD
:1011C0003D01882319F010923A0147C080914001F7
:1011D00090914101009709F440C090913A018091AB
:1011E0003C019817D0F5809199018823A9F40E94B9
:1011F000790C8093990110E00BC00E94740CE02FD1
:10120000F0E03197E11BF109E656FE4F80831F5F46
:1012100000919901101788F3A0919901AA23E9F090
:1012200080913A01E0914001F0914101E80FF11DF8
:10123000A150A0939901B0E0A656BE4F8C91808337
:1012400080913A018F5F80933A0190913A018091A9
:101250003C01981709F0BACFB2CF1F910F910895B2
:10126000823051F0882319F4E1ECF0E002C0E9EC9F
:10127000F0E090819F779083A82FB0E0FD01EE0F02
:10128000FF1F53E0AA0FBB1F5A95E1F7EA0FFB1FA0
:10129000EC5DFE4F71876087682F70E0FB01EE0FF9
:1012A000FF1F93E0660F771F9A95E1F7E60FF71F90
:1012B000EC5DFE4F1282682F70E0FB01EE0FFF1F06
:1012C000A3E0660F771FAA95E1F7E60FF71FEC5D25
:1012D000FE4F4483482F50E0FA01EE0FFF1F63E0FA
:1012E000440F551F6A95E1F7E40FF51FEC5DFE4FC3
:1012F00025838230D9F0282F30E0F901EE0FFF1F4F
:1013000043E0220F331F4A95E1F7E20FF31FEC5D34
:10131000FE4F9081992351F4882319F4E1ECF0E019
:1013200002C0E9ECF0E0808180688083089521E0CC
:101330000E94300908950E94970908951F920F9204
:101340000FB60F920BB60F9211242F933F934F932A
:101350005F936F937F938F939F93AF93BF93EF931D
:10136000FF936091C60080E00E94C407FF91EF9157
:10137000BF91AF919F918F917F916F915F914F91AD
:101380003F912F910F900BBE0F900FBE0F901F90AB
:1013900018951F920F920FB60F920BB60F92112451
:1013A0002F933F934F935F936F937F938F939F936D
:1013B000AF93BF93EF93FF936091CE0081E00E94C3
:1013C000C407FF91EF91BF91AF919F918F917F9152
:1013D0006F915F914F913F912F910F900BBE0F90A6
:1013E0000FBE0F901F901895882319F4E1ECF0E0E0
:1013F00002C0E9ECF0E08081806280830895882358
:1014000019F4E1ECF0E002C0E9ECF0E080818F7DBE
:1014100080830895282F30E0F901EE0FFF1F93E03D
:10142000220F331F9A95E1F7E20FF31FEC5DFE4F99
:101430002681378121153105A1F1282F30E0F901EE
:10144000EE0FFF1FA3E0220F331FAA95E1F7E20F73
:10145000F31FEC5DFE4F4181282F30E0F901EE0FC4
:10146000FF1F63E0220F331F6A95E1F7E20FF31FBE
:10147000EC5DFE4F93814917A0F4282F30E0F9016D
:10148000EE0FFF1F43E0220F331F4A95E1F7E20FF3
:10149000F31FEC5DFE4F9081992319F40E94F4092B
:1014A00008950E94FF090895823031F1282F30E01D
:1014B000F901EE0FFF1F53E0220F331F5A95E1F79A
:1014C000E20FF31FEC5DFE4F9081992349F48823CE
:1014D00019F4E1ECF0E002C0E9ECF0E098E908C0B2
:1014E000882319F4E1ECF0E002C0E9ECF0E098E1C7
:1014F00090830E940A0A78940895882319F0813015
:1015000041F404C080E00E94540A089581E00E94E2
:10151000540A0895A0E0B0E0E0E9FAE00C946F0D01
:10152000D82E7A018B010E947D0A8D2D823001F127
:10153000DD2019F4C4ECD0E002C0CCECD0E0C8014E
:10154000B70128EF3FEF4FEF5FEF0E94E80C6050CC
:10155000734D8E4C9E4FA8019701E4E0220F331F7C
:10156000441F551FEA95D1F70E94180D398328832F
:10157000CDB7DEB7E7E00C948B0D0E948A0A089580
:10158000282F30E0F901EE0FFF1F73E0220F331F09
:101590007A95E1F7E20FF31FEC5DFE4F468157812C
:1015A0004115510509F465C0282F30E0F901EE0F0F
:1015B000FF1F93E0220F331F9A95E1F7E20FF31F0D
:1015C000EC5DFE4F6181282F30E0F901EE0FFF1F27
:1015D000A3E0220F331FAA95E1F7E20FF31FEC5DA2
:1015E000FE4F9381691708F044C0882319F4E0EC9A
:1015F000F0E002C0E8ECF0E0908195FF3AC088236B
:1016000019F4A6ECB0E002C0AEECB0E0282F30E058
:10161000F901EE0FFF1F63E0220F331F6A95E1F718
:10162000E20FF31FEC5DFE4F9181490F511DFA014E
:1016300090819C93282F30E0F901EE0FFF1F93E07B
:10164000220F331F9A95E1F7E20FF31FEC5DFE4F77
:1016500091819F5F282F30E0F901EE0FFF1FA3E07B
:10166000220F331FAA95E1F7E20FF31FEC5DFE4F47
:1016700091830E940A0A08951F93182F823031F037
:101680000E94FF09812F0E94C00A1DC080913E0167
:1016900090913F010097B9F03091390120913B01C1
:1016A000321788F406C0809139018F5F8093390129
:1016B000EDCF20913901820F911DFC0180810E94A4
:1016C000800C882381F71F91089580E00E943C0BD5
:1016D00081E00E943C0B82E00E943C0B80E00E9473
:1016E0006B0881E00E946B0882E00E946B080895FD
:1016F0000E94650B08951F920F920FB60F920BB6C2
:101700000F9211242F933F934F935F936F937F9387
:101710008F939F93AF93BF93EF93FF9380E00E94CB
:10172000C00AFF91EF91BF91AF919F918F917F91EF
:101730006F915F914F913F912F910F900BBE0F9042
:101740000FBE0F901F9018951F920F920FB60F9219
:101750000BB60F9211242F933F934F935F936F9388
:101760007F938F939F93AF93BF93EF93FF9381E00A
:101770000E94C00AFF91EF91BF91AF919F918F910D
:101780007F916F915F914F913F912F910F900BBE81
:101790000F900FBE0F901F9018956F9364E06A959D
:1017A000F1F76F910197C9F708952F928F939F9347
:1017B0002FB68091A3019091A40101968093A3017B
:1017C0009093A40190E08091A501891F8093A501C9
:1017D0009091AB019C5F9093AB018091AA018051E5
:1017E0009742C0F09093AB018093AA018091A6012B
:1017F0009091A70101968093A6019093A70190E094
:101800008091A801891F8093A8018091A901891F57
:101810008093A9012FBE9F918F912F901895CF9300
:10182000DF93EC0105C088EE93E00E94CD0B219779
:101830002097C9F7DF91CF9108950E940F0C08956A
:10184000E0E7F0E080818E7F8083A0EBB0E08C91B8
:1018500083608C93A1EBB0E08C91807F8C938C9112
:1018600082608C93B89A8081816080837894089597
:101870008091AC01882329F481E08093AC010E941F
:10188000200C08950E94380CE0E7F0E080818E7F04
:1018900080832091A6013091A7014091A801509129
:1018A000A901808181608083B901CA0108950E94E5
:1018B000420C08950E94380CE0E7F0E080818E7FB2
:1018C00080831092A6011092A7011092A801109295
:1018D000A9011092AB011092AA01808181608083DE
:1018E00008950E945A0C08958FEF64E00E94C30C83
:1018F000089583E867E00E94C30C0E94740C089569
:101900001F93182F982F9095991F9927991F85E855
:10191000891B65E00E94C30C812F8F7765E00E94D0
:10192000C30C1F9108956F9364E06A95F1F76F916E
:101930000197C9F70895A1E0B0E0E1EAFCE00C945A
:10194000730D182F249909C02C9907C02C9A8EE189
:1019500090E069830E94930C698184B1806A84B9A4
:101960002698812F837080656C7A862B8CBD81E0F0
:1019700012FF80E08DBD81E090E00E940F0C219667
:10198000E3E00C948F0D0F931F93082F162F0CB4C8
:1019900006FC04C080E064E00E949B0C0CB404FCD4
:1019A00003C08CB580618CBD0EBD03C00CB404FEB9
:1019B0000BC00DB407FEFACF112321F0812F90E068
:1019C0000E94930C8EB501C080E01F910F91089585
:1019D000DB018F939F930E94590DBF91AF91A29FFE
:1019E000800D911DA39F900DB29F900D112408951D
:1019F000991B79E004C0991F961708F0961B881F61
:101A00007A95C9F780950895AA1BBB1B51E107C0C1
:101A1000AA1FBB1FA617B70710F0A61BB70B881F7E
:101A2000991F5A95A9F780959095BC01CD0108950D
:101A3000A1E21A2EAA1BBB1BFD010DC0AA1FBB1FD2
:101A4000EE1FFF1FA217B307E407F50720F0A21B44
:101A5000B30BE40BF50B661F771F881F991F1A94B1
:101A600069F760957095809590959B01AC01BD01DB
:101A7000CF010895052E97FB1EF400940E94510D8E
:101A800057FD07D00E94180D07FC03D04EF40C94AC
:101A9000510D50954095309521953F4F4F4F5F4FD9
:101AA000089590958095709561957F4F8F4F9F4FCA
:101AB00008950E949B0DA59F900DB49F900DA49F2B
:101AC000800D911D112408952F923F924F925F92A5
:101AD0006F927F928F929F92AF92BF92CF92DF923E
:101AE000EF92FF920F931F93CF93DF93CDB7DEB7A3
:101AF000CA1BDB0B0FB6F894DEBF0FBECDBF099437
:101B00002A88398848885F846E847D848C849B848D
:101B1000AA84B984C884DF80EE80FD800C811B819B
:101B2000AA81B981CE0FD11D0FB6F894DEBF0FBECA
:101B3000CDBFED010895A29FB001B39FC001A39F47
:101B4000700D811D1124911DB29F700D811D1124F6
:101B5000911D0895CF93DF938230910510F482E0B8
:101B600090E0E091F001F091F10120E030E0A0E0A0
:101B7000B0E0309739F14081518148175907B8F0EA
:101B80004817590771F482819381109729F01396B1
:101B90009C938E9312972CC09093F1018093F00147
:101BA00027C02115310531F04217530718F0A9015C
:101BB000DB0101C0EF019A01BD01DF010280F38169
:101BC000E02DD7CF21153105F9F0281B390B243032
:101BD000310580F48A819B816115710521F0FB013B
:101BE0009383828304C09093F1018093F001FE01FE
:101BF000329644C0FE01E20FF31F8193919322506D
:101C00003109398328833AC02091EE013091EF01E8
:101C1000232B41F420914401309145013093EF0191
:101C20002093EE01209142013091430121153105AD
:101C300041F42DB73EB74091460150914701241B16
:101C4000350BE091EE01F091EF01E217F307A0F4FC
:101C50002E1B3F0B2817390778F0AC014E5F5F4F02
:101C60002417350748F04E0F5F1F5093EF01409344
:101C7000EE018193919302C0E0E0F0E0CF01DF91AB
:101C8000CF910895CF93DF93009709F487C0FC01AB
:101C9000329713821282C091F001D091F101209706
:101CA00081F420813181280F391F8091EE019091BC
:101CB000EF018217930779F5F093EF01E093EE01BE
:101CC0006DC0DE0120E030E0AE17BF0750F4129681
:101CD0004D915C9113979D014115510509F1DA0170
:101CE000F3CFB383A28340815181840F951F8A175C
:101CF0009B0771F48D919C911197840F951F02960B
:101D00009183808312968D919C9113979383828304
:101D10002115310529F4F093F101E093F0013EC063
:101D2000D9011396FC93EE9312974D915D91A40FF8
:101D3000B51FEA17FB0779F480819181840F951F05
:101D40000296D90111969C938E938281938113966A
:101D50009C938E931297E0E0F0E08A819B8100973C
:101D600019F0FE01EC01F9CFCE01029628813981EC
:101D7000820F931F2091EE013091EF012817390750
:101D800069F4309729F41092F1011092F00102C029
:101D900013821282D093EF01C093EE01DF91CF91B5
:101DA00008950F931F93CF93DF93EC018B0100975E
:101DB00031F46115710519F480E090E038C06EE0EF
:101DC00070E081E090E00E945611FC010097A1F3C1
:101DD00080E883830115110571F01387028781E87C
:101DE00083838091F2019091F301892B21F4F09388
:101DF000F301E093F2012097C9F0D187C087838176
:101E0000826083838091F4019091F501892B71F4B4
:101E1000F093F501E093F4018091F6019091F701C0
:101E2000892B21F4F093F701E093F601CF01DF91C4
:101E3000CF911F910F910895CF93DF93CDB7DEB768
:101E4000FE01359661917191AF018091F4019091FD
:101E5000F5010E945B0FDF91CF9108950F931F93BF
:101E6000CF93DF93E091F401F091F501238121FFFD
:101E70001BC0EC0100E010E089916091F4017091C9
:101E8000F501DB011896ED91FC911997882331F04B
:101E90000995892B89F30FEF1FEFEECF8AE00995A3
:101EA000892B11F4C80102C08FEF9FEFDF91CF9112
:101EB0001F910F9108952F923F924F925F926F92D0
:101EC0007F928F929F92AF92BF92CF92DF92EF92CA
:101ED000FF920F931F93CF93DF93CDB7DEB72C976D
:101EE0000FB6F894DEBF0FBECDBF7C016B018A0137
:101EF000FC0117821682838181FFBDC1CE0101964C
:101F00004C01F7019381F60193FD859193FF819137
:101F10006F01882309F4ABC1853239F493FD8591B3
:101F200093FF81916F01853229F4B70190E00E94FF
:101F30008F11E7CF512C312C20E02032A0F48B32CE
:101F400069F030F4803259F0833269F420612CC09A
:101F50008D3239F0803339F4216026C0226024604C
:101F600023C0286021C027FD27C030ED380F3A304C
:101F700078F426FF06C0FAE05F9E300D1124532E40
:101F800013C08AE0389E300D1124332E20620CC01D
:101F90008E3221F426FD6BC1206406C08C3611F40C
:101FA000206802C0883641F4F60193FD859193FFC5
:101FB00081916F018111C1CF982F9F7D95549330EE
:101FC00028F40C5F1F4FFFE3F9830DC0833631F017
:101FD000833771F0833509F05BC022C0F80180813E
:101FE00089830E5F1F4F44244394512C540115C024
:101FF0003801F2E06F0E711CF801A080B18026FF5D
:1020000003C0652D70E002C06FEF7FEFC5012C8724
:102010000E9484112C0183012C852F77222E17C05A
:102020003801F2E06F0E711CF801A080B18026FF2C
:1020300003C0652D70E002C06FEF7FEFC5012C87F4
:102040000E9472112C012C852068222E830123FC12
:102050001BC0832D90E048165906B0F4B70180E20A
:1020600090E00E948F113A94F4CFF50127FC8591FE
:1020700027FE81915F01B70190E00E948F1131101E
:102080003A94F1E04F1A51084114510471F7E5C038
:10209000843611F0893639F5F80127FF07C06081D1
:1020A0007181828193810C5F1F4F08C060817181B3
:1020B000882777FD8095982F0E5F1F4F2F76B22EC1
:1020C00097FF09C090958095709561957F4F8F4FD0
:1020D0009F4F2068B22E2AE030E0A4010E94C11177
:1020E000A82EA81844C0853729F42F7EB22E2AE0E6
:1020F00030E025C0F22FF97FBF2E8F36C1F018F4E3
:10210000883579F0B4C0803719F0883721F0AFC036
:102110002F2F2061B22EB4FE0DC08B2D8460B82EFF
:1021200009C024FF0AC09F2F9660B92E06C028E080
:1021300030E005C020E130E002C020E132E0F801EB
:10214000B7FE07C060817181828193810C5F1F4F50
:1021500006C06081718180E090E00E5F1F4FA40196
:102160000E94C111A82EA818FB2DFF77BF2EB6FE26
:102170000BC02B2D2E7FA51450F4B4FE0AC0B2FC68
:1021800008C02B2D2E7E05C07A2C2B2D03C07A2C57
:1021900001C0752C24FF0DC0FE01EA0DF11D8081E8
:1021A000803311F4297E09C022FF06C07394739412
:1021B00004C0822F867809F0739423FD13C020FF9A
:1021C00006C05A2C731418F4530C5718732C73143C
:1021D00068F4B70180E290E02C870E948F1173941D
:1021E0002C85F5CF731410F4371801C0312C24FF5F
:1021F00012C0B70180E390E02C870E948F112C85DC
:1022000022FF17C021FF03C088E590E002C088E7E5
:1022100090E0B7010CC0822F867859F021FD02C0F2
:1022200080E201C08BE227FD8DE2B70190E00E94C1
:102230008F11A51438F4B70180E390E00E948F114C
:102240005A94F7CFAA94F401EA0DF11D8081B701E9
:1022500090E00E948F11A110F5CF332009F451CEE8
:10226000B70180E290E00E948F113A94F6CFF70117
:102270008681978102C08FEF9FEF2C960FB6F8945E
:10228000DEBF0FBECDBFDF91CF911F910F91FF90A9
:10229000EF90DF90CF90BF90AF909F908F907F9006
:1022A0006F905F904F903F902F9008950F931F93E2
:1022B000CF93DF93869F8001879F100D969F100D0F
:1022C0001124C8010E94AA0DEC01009729F0A80171
:1022D00060E070E00E947D11CE01DF91CF911F91EF
:1022E0000F910895FC010590615070400110D8F7DE
:1022F000809590958E0F9F1F0895DC0101C06D930E
:1023000041505040E0F70895FC0161507040019049
:102310000110D8F7809590958E0F9F1F08950F9309
:102320001F93CF93DF93182F092FEB018B8181FD32
:1023300003C08FEF9FEF20C082FF10C04E815F81EE
:102340002C813D81421753077CF4E881F9819F017C
:102350002F5F3F4F39832883108306C0E885F985B6
:10236000812F0995892B29F72E813F812F5F3F4FC0
:102370003F832E83812F902FDF91CF911F910F915B
:102380000895FA01AA27283051F1203181F1E8940B
:102390006F936E7F6E5F7F4F8F4F9F4FAF4FB1E058
:1023A0003ED0B4E03CD0670F781F891F9A1FA11D53
:1023B000680F791F8A1F911DA11D6A0F711D811D54
:1023C000911DA11D20D009F468943F912AE0269F19
:1023D00011243019305D3193DEF6CF010895462F78
:1023E0004770405D4193B3E00FD0C9F7F6CF462F59
:1023F0004F70405D4A3318F0495D31FD40524193C2
:1024000002D0A9F7EACFB4E0A6959795879577957E
:102410006795BA95C9F700976105710508959B0105
:10242000AC010A2E06945795479537952795BA958E
:10243000C9F7620F731F841F951FA01D0895F8949C
:02244000FFCFCC
:1024420001040400D007F4010F009C01B501CF0183
:10245200EA0107022602470269028E02B502DE0283
:102462000A0302100000000000000000000000004B
:102472000000000000000000010000000000000059
:1024820000000000F80120000A00E803463A253067
:1024920035690050726F6772616D20320A4A657346
:1024A200736520457374756D00542D426C696E6BB3
:0A24B20000422D436F6C6F720000B2
:00000001FF
