S010000070726F6A656374332E73726563EA
S11300000C9446000C9465000C9465000C946500F7
S11300100C9465000C9465000C9465000C946500C8
S11300200C9465000C9465000C9465000C94610AB2
S11300300C9465000C9465000C9465000C946500A8
S11300400C9470000C9465000C9465000C9465008D
S11300500C94F4070C94070A0C9465000C94650046
S11300600C9465000C9465000C9465000C94650078
S11300700C941F080C94300A0C9465000C946500D1
S11300800C9481000C9465000C94650011241FBE2F
S1130090CFEFD0E4DEBFCDBF11E0A0E0B1E0E8EFE8
S11300A0F0E200E00BBF02C007900D92A638B10742
S11300B0D9F721E0A6E8B1E001C01D92AB3FB20739
S11300C0E1F70E944C020C947A100C94000082E038
S11300D00E94F805811103C00E94CE09F8CF08954B
S11300E01F920F920FB60F9211248F93F89481E010
S11300F08093A90178948F910F900FBE0F901F9059
S113010018951F920F920FB60F9211248F939F93FD
S1130110F89482B191E0892782B98091A5019091E8
S1130120A60101969093A6018093A50178949F91CE
S11301308F910F900FBE0F901F901895CF93DF9360
S1130140C091EF01D091F001CE0102960E94190DE9
S11301502881243509F4C6C02A3509F498C020350D
S113016009F0FCC08981873409F466C0E0F5813464
S113017009F0F4C0CFECD1E080E2DE011D928A9553
S1130180E9F74091A3015091A4012091A501309178
S1130190A6018091A7019091A8015F934F933F938B
S11301A02F939F938F938CE291E09F938F93DF9390
S11301B0CF930E94AA0D0E946700DE010D900020DB
S11301C0E9F7AD01415051094F5C5140BE0182E055
S11301D00E94040AEDB7FEB73A960FB6F894FEBF34
S11301E00FBEEDBFBBC0823599F0893509F0B6C0AA
S11301F0CFECD1E080E2FE0111928A95E9F780917B
S1130200A5019091A6019F938F9388E491E023C068
S1130210CFECD1E080E2DE011D928A95E9F780916E
S1130220A7019091A8019F938F938FE391E09F93EF
S11302308F93DF93CF9313C0CFECD1E080E2FE0124
S113024011928A95E9F78091A3019091A4019F935B
S11302508F9381E591E09F938F93DF93CF930E94D7
S1130260AA0D0E946700DE010D900020E9F7AD01A0
S1130270415051094F5C5140BE0182E00E94040A82
S11302800F900F900F900F900F900F9067C089817F
S11302908734D1F058F48134D9F41092A801109223
S11302A0A7011092A6011092A5010EC0823539F063
S11302B0893571F41092A6011092A50109C010921B
S11302C0A8011092A70104C01092A4011092A301E6
S11302D0CFECD1E080E2FE0111928A95E9F76AE55C
S11302E071E02AC029812734D1F058F42134D9F49B
S11302F090932B0180932A019093290180932801E4
S11303000EC0223539F0293571F490932901809378
S1130310280109C090932B0180932A0104C0909373
S1130320270180932601CFECD1E080E2FE011192F7
S11303308A95E9F76CE671E0CE010E943E0D0E94B9
S11303406700DE010D900020E9F7AD01415051092D
S11303504F5C5140BE0182E00E94040AE091EF012B
S1130360F091F00188E0DF011D928A95E9F7DF91B1
S1130370CF910895CF93C82F893509F454C030F52F
S1130380813409F45DC0B8F48D3009F45FC008F419
S11303905FC080ED8C0F8A3008F05AC0E091EF0105
S11303A0F091F0018781DF01A80FB11D1296CC9363
S11303B08F5F87834DC0803519F118F48734D1F1EC
S11303C047C0823551F1843511F142C08037C1F004
S11303D038F48136A9F1873669F18A35C9F50AC03E
S11303E08437A9F018F48237C1F032C08937D9F0C4
S11303F08A3771F5E091EF01F091F0018AE505C0CB
S1130400E091EF01F091F00180E5808321C0E0915B
S1130410EF01F091F00184E5F8CFE091EF01F09164
S1130420F00182E505C0E091EF01F091F00189E56A
S113043081830EC0E091EF01F091F00187E4F8CFE1
S1130440E091EF01F091F00181E4F2CF0E949E006F
S11304500E946700C093CF0141E06FEC71E082E03D
S1130460CF910C94040A82E00E94E805E091AA016D
S11304708E1789F0F0E0E555FE4F80810E94BA01A5
S11304808091AA018F3119F41092AA01ECCF8F5FE9
S11304908093AA01E8CF08950E94E5050E946B04A9
S11304A080E891E09F938F930E94980D88EE93E0EB
S11304B00E94A90A0E946B04789468E070E081E0CD
S11304C090E00E94D60B9093F0018093EF0184E0BA
S11304D085BD12E814BD60912A0170912B01C8EE0C
S11304E0D3E0CE010E94300B8BE49CE40E94300BDD
S11304F067BD80916E00826080936E000A9A82B11B
S113050012B88CE08093910080E880939000609111
S1130510280170912901CE010E94300B9B0140E01B
S113052050E06DE271E381E090E00E94660B30934D
S113053099002093980080917100826080937100EB
S1130540089A82B112B8559A109380008DE1809375
S113055081006091260170912701660F771FCE01FB
S11305600E94300B762F6627770F770F770F9B014A
S113057040E050E060E07DE281E391E00E94660BA0
S1130580215031093093890020938800809188009C
S113059090918900880F991F90938700809386001B
S11305A040E855E260E070E082E00E94130940E216
S11305B06BEA71E082E00E94F1070F900F900BE468
S11305C01CE46DE2C62E61E3D62EEE24E394F12CF6
S11305D0812C7DE2972E71E3A72EBB24B394E4E033
S11305E07E2E60912A0170912B01CE010E94300B66
S11305F0C8010E94300B67BD6091280170912901E8
S1130600CE010E94300B9B0140E050E0C701B601CF
S11306100E94660B30939900209398006091260104
S113062070912701660F771FCE010E94300B762F41
S11306306627770F770F770F9B0140E050E0C501E5
S1130640B4010E94660B2150310930938900209334
S113065088008091880090918900880F991F909359
S11306608700809386008091A901882371F01092FD
S1130670A90182B1872582B98091A7019091A8012F
S113068001969093A8018093A7010E94CE090E942D
S11306903302A7CF80E090E0089581E090E06F936B
S11306A064E06A95F1F76F910197C9F708950F9384
S11306B01F93CF93DF9317B13D982898299AC0E0F0
S11306C0D0E00E944D032A9A0E944D0306B12A9855
S11306D00E944D032A9A0E944D032A98249605FFEE
S11306E010C09E0140E050E080918A0190918B01FE
S11306F0A0918C01B0918D01281739074A075B0737
S113070000F39E0140E050E080918A0190918B01BA
S1130710A0918C01B0918D01281739074A075B0716
S113072028F082E390E0A0E0B0E004C080E395E725
S1130730A0E0B0E080938A0190938B01A0938C0198
S1130740B0938D0117B9DF91CF911F910F91089547
S113075028B190E08F709070880F991F880F991FAF
S1130760237C282B28B92A9A0E944D032A980E9498
S11307704D030895A2E0B0E0E0ECF3E00C949D0B8F
S1130780182F4A8369830E9435040E945703F7B0E7
S113079008B1299869814A81662311F0289A01C019
S11307A0289887B18C6387B9413029F0812F8295CD
S11307B08F700E94A803812F8F700E94A803F7B83E
S11307C008B92296E5E00C94B90B60E042E00E947F
S11307D0BA03089561E042E00E94BA03089560E01C
S11307E041E00E94BA0308953D98459A80E395E755
S11307F0A0E0B0E080938A0190938B01A0938C01D8
S1130800B0938D01209A219A229A8EE190E00E9461
S1130810A90A83E00E94EF0386E090E00E94A90AFF
S113082083E00E94EF0382E090E00E94A90A83E043
S11308300E94EF0382E090E00E94A90A82E00E94F5
S1130840EF0382E090E00E94A90A88E20E94E50397
S113085088E00E94E50381E00E94E50386E00E94AF
S1130860E5038CE00E94E503089580918E018823BE
S113087029F481E080938E010E94F403089581E0BD
S11308800E94E5038091860190918701009711F100
S1130890A0E0B0E208C0E0918601F0918701E20F88
S11308A0F31FB083AF5F2A2F30E08091000190E006
S11308B001976091010170E0869FA001879F500D10
S11308C0969F500D1124241735072CF3109289019B
S11308D01092880108950E943F040895A5E0B0E0B5
S11308E0E4E7F4E00C949F0B182F80E8898380ECF4
S11308F08A8384E98B8384ED8C83FE01E60FF11DEA
S11309008181810F6D830E94E503109389016D81BC
S1130910609388012596E3E00C94BB0BA0E0B0E063
S1130920E4E9F4E00C949A0BD82E8091860190911E
S11309308701009709F4FAC02D2D2A3009F443C029
S11309402830C9F4809189018150809389018F3FB7
S113095051F4809188018150809388018091010134
S1130960815080938901809188018F3F09F0D8C01C
S113097010928801D3C08D2D0E94EA0380918801D2
S11309808823B9F090E001974091010150E0849FE1
S11309909001859F300D949F300D11248091890121
S11309A0E0918601F0918701E20FF31FE80FF11D3A
S11309B0D082809189018F5F809389019091010198
S11309C0891709F0B3C040918801242F30E0809149
S11309D0000190E001972817390709F09CC0C0E096
S11309E0D0E041C080E06C2F0E946E04CC248E01C4
S11309F00F5F1F4F33C0EC2CFF2430E0C29FC001B7
S1130A00C39F900DD29F900D1124E0918601F09127
S1130A108701EE0DFF1DE80FF91F80810E94EA0394
S1130A2080918601909187012091010130E0C29F5D
S1130A30F001C39FF00DD29FF00D11248E0D9F1D68
S1130A40E80FF91F029FD001039FB00D129FB00D54
S1130A501124A80FB91F8C918083C39420910101A4
S1130A60C21648F2E80160910001862F90E00297D7
S1130A70C817D9070CF4B6CF6230E0F1625080E0B9
S1130A800E946E0400E010E231C0C02FD0E08091DB
S1130A90000190E0029750E0849F9001859F300D03
S1130AA0949F300D1124E0918601F0918701EC0FA1
S1130AB0FD1FE20FF31F80810E94EA038091000171
S1130AC090E002974091010150E0849F9001859F3E
S1130AD0300D949F300D1124E0918601F09187012F
S1130AE0EC0FFD1FE20FF31F10830F5F4091010114
S1130AF0041758F260910001615080E00E946E0476
S1130B0010E004C080E20E94EA031F5F80910101AB
S1130B101817C0F303C04F5F4093880110928901F6
S1130B2080918901609188010E946E042D2D3327E4
S1130B3027FD3095C901CDB7DEB7E8E00C94B60BBC
S1130B408091860190918701009711F00E948A0C90
S1130B502091000130E0215030408091010190E06B
S1130B60AC01249FC001259F900D349F900D11244A
S1130B700E94F20B9093870180938601009721F1E4
S1130B80A0E0B0E208C0E0918601F0918701E20F95
S1130B90F31FB083AF5F2A2F30E08091000190E013
S1130BA001976091010170E0869FA001879F500D1D
S1130BB0969F500D1124241735072CF38EE894E0EA
S1130BC06AE473E00E944D0D08950E94A005089503
S1130BD0282F30E0F901EE0FFF1F43E0220F331FEF
S1130BE04A95E1F7E20FF31FEE5FFE4F828108950D
S1130BF0282F30E0F901EE0FFF1F73E0220F331F9F
S1130C007A95E1F7E20FF31FEE5FFE4F4181282F43
S1130C1030E0F901EE0FFF1F53E0220F331F5A9506
S1130C20E1F7E20FF31FEE5FFE4F81E0938149137A
S1130C3080E00895282F30E0F901EE0FFF1FB3E0A4
S1130C40220F331FBA95E1F7E20FF31FEE5FFE4F59
S1130C50408551854115510509F452C0282F30E0D3
S1130C60F901EE0FFF1F73E0220F331F7A95E1F7AE
S1130C70E20FF31FEE5FFE4F7281282F30E0F9017F
S1130C80EE0FFF1FB3E0220F331FBA95E1F7E20F17
S1130C90F31FEE5FFE4F9481791790F5282F30E013
S1130CA0F901EE0FFF1F73E0220F331F7A95E1F76E
S1130CB0E20FF31FEE5FFE4F9281490F511DFA01BF
S1130CC06083282F30E0F901EE0FFF1F53E0220F5D
S1130CD0331F5A95E1F7E20FF31FEE5FFE4F928147
S1130CE09F5F282F30E0F901EE0FFF1FB3E0220FC2
S1130CF0331FBA95E1F7E20FF31FEE5FFE4F9283C5
S1130D00282F30E0F901EE0FFF1F73E0220F331F8D
S1130D107A95E1F7E20FF31FEE5FFE4F4281282F31
S1130D2030E0F901EE0FFF1F53E0220F331F5A95F5
S1130D30E1F7E20FF31FEE5FFE4F9481491701F5CF
S1130D40282F30E0F901EE0FFF1F93E0220F331F2D
S1130D509A95E1F7E20FF31FEE5FFE4F9581992319
S1130D6079F0282F30E0F901EE0FFF1FB3E0220FD6
S1130D70331FBA95E1F7E20FF31FEE5FFE4F1282C5
S1130D8008950F931F93182F823009F475C0882398
S1130D9019F4E1ECF0E002C0E9ECF0E080818F7737
S1130DA08083812F90E0FC01EE0FFF1F03E0880F8A
S1130DB0991F0A95E1F7E80FF91FEE5FFE4F808552
S1130DC091850097A9F1212F30E0F901EE0FFF1F63
S1130DD0A3E0220F331FAA95E1F7E20FF31FEE5FA2
S1130DE0FE4F9281212F30E0F901EE0FFF1F63E0E7
S1130DF0220F331F6A95E1F7E20FF31FEE5FFE4FF8
S1130E0084819817A8F4112319F4E0ECF0E002C0EF
S1130E10E8ECF0E0808187FF0BC0112319F4E6ECC5
S1130E20F0E002C0EEECF0E06081812F0E941A062F
S1130E30212F30E0F901EE0FFF1F43E0220F331F93
S1130E404A95E1F7E20FF31FEE5FFE4F808188239E
S1130E5009F059C0112319F4E1ECF0E002C0E9EC07
S1130E60F0E08081806880834EC080911B018823DC
S1130E7019F01092180147C080911E0190911F0132
S1130E80009709F440C09091180180911A019817B5
S1130E90D0F580918F018823A9F40E94B10A809330
S1130EA08F0110E00BC00E94AC0AE02FF0E03197F4
S1130EB0E11BF109E057FE4F80831F5F00918F0112
S1130EC0101788F3A0918F01AA23E9F080911801EB
S1130ED0E0911E01F0911F01E80FF11DA150A093B4
S1130EE08F01B0E0A057BE4F8C9180838091180190
S1130EF08F5F809318019091180180911A019817BF
S1130F0009F0BACFB2CF1F910F910895823051F0FA
S1130F10882319F4E1ECF0E002C0E9ECF0E0908100
S1130F209F779083A82FB0E0FD01EE0FFF1F53E0E1
S1130F30AA0FBB1F5A95E1F7EA0FFB1FEE5FFE4FA6
S1130F4071876087682F70E0FB01EE0FFF1F93E04D
S1130F50660F771F9A95E1F7E60FF71FEE5FFE4FD6
S1130F601282682F70E0FB01EE0FFF1FA3E0660FF3
S1130F70771FAA95E1F7E60FF71FEE5FFE4F448354
S1130F80482F50E0FA01EE0FFF1F63E0440F551F96
S1130F906A95E1F7E40FF51FEE5FFE4F258382307B
S1130FA0D9F0282F30E0F901EE0FFF1F43E0220FA4
S1130FB0331F4A95E1F7E20FF31FEE5FFE4F908176
S1130FC0992351F4882319F4E1ECF0E002C0E9EC30
S1130FD0F0E0808180688083089521E00E94860784
S1130FE008950E94ED0708951F920F920FB60F9275
S1130FF00BB60F9211242F933F934F935F936F93EC
S11310007F938F939F93AF93BF93EF93FF936091DD
S1131010C60080E00E941A06FF91EF91BF91AF9144
S11310209F918F917F916F915F914F913F912F91FC
S11310300F900BBE0F900FBE0F901F9018951F922C
S11310400F920FB60F920BB60F9211242F933F936A
S11310504F935F936F937F938F939F93AF93BF93BC
S1131060EF93FF936091CE0081E00E941A06FF91F6
S1131070EF91BF91AF919F918F917F916F915F910C
S11310804F913F912F910F900BBE0F900FBE0F9079
S11310901F901895882319F4E1ECF0E002C0E9EC04
S11310A0F0E08081806280830895882319F4E1EC64
S11310B0F0E002C0E9ECF0E080818F7D8083089548
S11310C0282F30E0F901EE0FFF1F93E0220F331FAA
S11310D09A95E1F7E20FF31FEE5FFE4F2681378109
S11310E021153105A1F1282F30E0F901EE0FFF1F82
S11310F0A3E0220F331FAA95E1F7E20FF31FEE5F7F
S1131100FE4F4181282F30E0F901EE0FFF1F63E00D
S1131110220F331F6A95E1F7E20FF31FEE5FFE4FD4
S113112093814917A0F4282F30E0F901EE0FFF1F37
S113113043E0220F331F4A95E1F7E20FF31FEE5FFE
S1131140FE4F9081992319F40E944A0808950E9441
S113115055080895823031F1282F30E0F901EE0F5F
S1131160FF1F53E0220F331F5A95E1F7E20FF31FDD
S1131170EE5FFE4F9081992349F4882319F4E1EC42
S1131180F0E002C0E9ECF0E098E908C0882319F423
S1131190E1ECF0E002C0E9ECF0E098E190830E9419
S11311A0600878940895882319F0813041F404C0CC
S11311B080E00E94AA08089581E00E94AA08089588
S11311C0A0E0B0E0E6EEF8E00C949B0BD82E7A0198
S11311D08B010E94D3088D2D823001F1DD2019F49A
S11311E0C4ECD0E002C0CCECD0E0C801B70128EFD9
S11311F03FEF4FEF5FEF0E94200B6050734D8E4C1A
S11312009E4FA8019701E4E0220F331F441F551F8E
S1131210EA95D1F70E94440B39832883CDB7DEB712
S1131220E7E00C94B70B0E94E0080895282F30E003
S1131230F901EE0FFF1F73E0220F331F7A95E1F7D8
S1131240E20FF31FEE5FFE4F4681578141155105B2
S113125009F465C0282F30E0F901EE0FFF1F93E079
S1131260220F331F9A95E1F7E20FF31FEE5FFE4F53
S11312706181282F30E0F901EE0FFF1FA3E0220F58
S1131280331FAA95E1F7E20FF31FEE5FFE4F938140
S1131290691708F044C0882319F4E0ECF0E002C0B8
S11312A0E8ECF0E0908195FF3AC0882319F4A6ECAD
S11312B0B0E002C0AEECB0E0282F30E0F901EE0F50
S11312C0FF1F63E0220F331F6A95E1F7E20FF31F5C
S11312D0EE5FFE4F9181490F511DFA0190819C935D
S11312E0282F30E0F901EE0FFF1F93E0220F331F88
S11312F09A95E1F7E20FF31FEE5FFE4F91819F5F36
S1131300282F30E0F901EE0FFF1FA3E0220F331F57
S1131310AA95E1F7E20FF31FEE5FFE4F91830E945F
S1131320600808951F93182F823031F00E945508E9
S1131330812F0E9416091DC080911C0190911D01EE
S11313400097B9F03091170120911901321788F4F0
S113135006C0809117018F5F80931701EDCF209114
S11313601701820F911DFC0180810E94B80A882315
S113137081F71F91089580E00E94920981E00E9404
S1131380920982E00E94920980E00E94C10681E0F5
S11313900E94C10682E00E94C10608950E94BB0912
S11313A00895282F30E0F901EE0FFF1F93E0220F7C
S11313B0331F9A95E1F7E20FF31FEE5FFE4F778339
S11313C06683282F30E0F901EE0FFF1FA3E0220F00
S11313D0331FAA95E1F7E20FF31FEE5FFE4F118270
S11313E0282F30E0F901EE0FFF1F63E0220F331FB7
S11313F06A95E1F7E20FF31FEE5FFE4F43838230FD
S113140011F00E94600808950E94D10908951F9266
S11314100F920FB60F920BB60F9211242F933F9396
S11314204F935F936F937F938F939F93AF93BF93E8
S1131430EF93FF9380E00E941609FF91EF91BF9113
S1131440AF919F918F917F916F915F914F913F9158
S11314502F910F900BBE0F900FBE0F901F901895F9
S11314601F920F920FB60F920BB60F9211242F9367
S11314703F934F935F936F937F938F939F93AF9318
S1131480BF93EF93FF9381E00E941609FF91EF91C0
S1131490BF91AF919F918F917F916F915F914F9188
S11314A03F912F910F900BBE0F900FBE0F901F9086
S11314B018956F9364E06A95F1F76F910197C9F7F6
S11314C008952F928F939F932FB6809199019091B5
S11314D09A0101968093990190939A0190E08091EA
S11314E09B01891F80939B019091A1019C5F909324
S11314F0A1018091A00180519742C0F09093A10175
S11315008093A00180919C0190919D01019680930C
S11315109C0190939D0190E080919E01891F80938E
S11315209E0180919F01891F80939F012FBE9F91EF
S11315308F912F901895CF93DF93EC0105C088EE1F
S113154093E00E94590A21972097C9F7DF91CF9120
S113155008950E949B0A08958FEF64E00E94FB0A9D
S1131560089583E867E00E94FB0A0E94AC0A08958C
S11315701F93182F982F9095991F9927991F85E8E5
S1131580891B65E00E94FB0A812F8F7765E00E942A
S1131590FB0A1F9108956F9364E06A95F1F76F91C8
S11315A00197C9F70895A1E0B0E0E9EDFAE00C94E1
S11315B09F0B182F249909C02C9907C02C9A8EE1EF
S11315C090E069830E94CB0A698184B1806A84B9FE
S11315D02698812F837080656C7A862B8CBD81E080
S11315E012FF80E08DBD81E090E00E949B0A21966D
S11315F0E3E00C94BB0B0F931F93082F162F0CB42E
S113160006FC04C080E064E00E94D30A0CB404FC2D
S113161003C08CB580618CBD0EBD03C00CB404FE48
S11316200BC00DB407FEFACF112321F0812F90E0F7
S11316300E94CB0A8EB501C080E01F910F910895DE
S1131640DB018F939F930E94850BBF91AF91A29F63
S1131650800D911DA39F900DB29F900D11240895AC
S1131660AA1BBB1B51E107C0AA1FBB1FA617B707C4
S113167010F0A61BB70B881F991F5A95A9F78095E0
S11316809095BC01CD010895A1E21A2EAA1BBB1BA3
S1131690FD010DC0AA1FBB1FEE1FFF1FA217B3073A
S11316A0E407F50720F0A21BB30BE40BF50B661F50
S11316B0771F881F991F1A9469F760957095809514
S11316C090959B01AC01BD01CF010895052E97FBB8
S11316D01EF400940E947D0B57FD07D00E94440B1A
S11316E007FC03D04EF40C947D0B50954095309537
S11316F021953F4F4F4F5F4F08959095809570957A
S113170061957F4F8F4F9F4F08950E94C70BA59FF0
S1131710900DB49F900DA49F800D911D11240895E8
S11317202F923F924F925F926F927F928F929F92ED
S1131730AF92BF92CF92DF92EF92FF920F931F93DB
S1131740CF93DF93CDB7DEB7CA1BDB0B0FB6F8948C
S1131750DEBF0FBECDBF09942A88398848885F84CC
S11317606E847D848C849B84AA84B984C884DF803D
S1131770EE80FD800C811B81AA81B981CE0FD11D21
S11317800FB6F894DEBF0FBECDBFED010895A29F42
S1131790B001B39FC001A39F700D811D1124911D41
S11317A0B29F700D811D1124911D08950F931F93F5
S11317B0CF93DF93869F8001879F100D969F100D16
S11317C01124C8010E94F20BEC01009729F0A80132
S11317D060E070E00E94370DCE01DF91CF911F9140
S11317E00F910895CF93DF938230910510F482E036
S11317F090E0E091F301F091F40120E030E0A0E00A
S1131800B0E0309739F14081518148175907B8F059
S11318104817590771F482819381109729F0139620
S11318209C938E9312972CC09093F4018093F301B0
S113183027C02115310531F04217530718F0A901CB
S1131840DB0101C0EF019A01BD01DF010280F381D8
S1131850E02DD7CF21153105F9F0281B390B2430A1
S1131860310580F48A819B816115710521F0FB01AA
S11318709383828304C09093F4018093F301FE0167
S1131880329644C0FE01E20FF31F819391932250DC
S11318903109398328833AC02091F1013091F20152
S11318A0232B41F420912201309123013093F20142
S11318B02093F1012091200130912101211531055E
S11318C041F42DB73EB74091240150912501241BCA
S11318D0350BE091F101F091F201E217F307A0F466
S11318E02E1B3F0B2817390778F0AC014E5F5F4F72
S11318F02417350748F04E0F5F1F5093F2014093B1
S1131900F1018193919302C0E0E0F0E0CF01DF9117
S1131910CF910895CF93DF93009709F487C0FC011A
S1131920329713821282C091F301D091F40120976F
S113193081F420813181280F391F8091F101909128
S1131940F2018217930779F5F093F201E093F10124
S11319506DC0DE0120E030E0AE17BF0750F41296F0
S11319604D915C9113979D014115510509F1DA01DF
S1131970F3CFB383A28340815181840F951F8A17CB
S11319809B0771F48D919C911197840F951F02967A
S11319909183808312968D919C9113979383828374
S11319A02115310529F4F093F401E093F3013EC0CD
S11319B0D9011396FC93EE9312974D915D91A40F68
S11319C0B51FEA17FB0779F480819181840F951F75
S11319D00296D90111969C938E93828193811396DA
S11319E09C938E931297E0E0F0E08A819B810097AC
S11319F019F0FE01EC01F9CFCE010296288139815C
S1131A00820F931F2091F1013091F20128173907B9
S1131A1069F4309729F41092F4011092F30102C092
S1131A2013821282D093F201C093F101DF91CF911E
S1131A300895FC0188279927E89421912032E9F33D
S1131A40293010F02E30C8F32B3241F02D3239F406
S1131A50689404C00E94450D820F911D219120536A
S1131A602A30C0F31EF4909581959F4F0895DC01B0
S1131A7001C06D9341505040E0F70895FB01DC0133
S1131A8001900D920020E1F708957AE0979F902D40
S1131A90879F802D910D112408950F931F93CF9349
S1131AA0DF93EC018B01009731F46115710519F492
S1131AB080E090E038C06EE070E081E090E00E9449
S1131AC0D60BFC010097A1F380E88383011511056F
S1131AD071F01387028781E883838091F5019091E7
S1131AE0F601892B21F4F093F601E093F501209798
S1131AF0C9F0D187C0878381826083838091F70195
S1131B009091F801892B71F4F093F801E093F701B7
S1131B108091F9019091FA01892B21F4F093FA0153
S1131B20E093F901CF01DF91CF911F910F910895B7
S1131B30CF93DF93CDB7DEB7FE01359661917191F6
S1131B40AF018091F7019091F8010E94D90DDF91C6
S1131B50CF9108950F931F93CF93DF93CDB7DEB743
S1131B602E970FB6F894DEBF0FBECDBF0D891E8928
S1131B7086E08C831A8309838FEF9FE79E838D838E
S1131B80AE01475E5F4F6F89788DCE0101960E944A
S1131B90D90DEF81F885E00FF11F10822E960FB654
S1131BA0F894DEBF0FBECDBFDF91CF911F910F918F
S1131BB008952F923F924F925F926F927F928F92ED
S1131BC09F92AF92BF92CF92DF92EF92FF920F93C8
S1131BD01F93CF93DF93CDB7DEB72C970FB6F8944E
S1131BE0DEBF0FBECDBF7C016B018A01FC011782F1
S1131BF01682838181FFBDC1CE0101964C01F7019C
S1131C009381F60193FD859193FF81916F01882360
S1131C1009F4ABC1853239F493FD859193FF819129
S1131C206F01853229F4B70190E00E94EA0FE7CFF3
S1131C30512C312C20E02032A0F48B3269F030F4A6
S1131C40803259F0833269F420612CC08D3239F02E
S1131C50803339F4216026C02260246023C02860C8
S1131C6021C027FD27C030ED380F3A3078F426FF25
S1131C7006C0FAE05F9E300D1124532E13C08AE093
S1131C80389E300D1124332E20620CC08E3221F484
S1131C9026FD6BC1206406C08C3611F4206802C096
S1131CA0883641F4F60193FD859193FF81916F018C
S1131CB08111C1CF982F9F7D9554933028F40C5FE8
S1131CC01F4FFFE3F9830DC0833631F0833771F082
S1131CD0833509F05BC022C0F801808189830E5FDF
S1131CE01F4F44244394512C540115C03801F2E091
S1131CF06F0E711CF801A080B18026FF03C0652D12
S1131D0070E002C06FEF7FEFC5012C870E94DF0FE8
S1131D102C0183012C852F77222E17C03801F2E085
S1131D206F0E711CF801A080B18026FF03C0652DE1
S1131D3070E002C06FEF7FEFC5012C870E94D40FC3
S1131D402C012C852068222E830123FC1BC0832DAB
S1131D5090E048165906B0F4B70180E290E00E9482
S1131D60EA0F3A94F4CFF50127FC859127FE81917F
S1131D705F01B70190E00E94EA0F31103A94F1E05C
S1131D804F1A51084114510471F7E5C0843611F01B
S1131D90893639F5F80127FF07C060817181828196
S1131DA093810C5F1F4F08C060817181882777FD84
S1131DB08095982F0E5F1F4F2F76B22E97FF09C084
S1131DC090958095709561957F4F8F4F9F4F2068B8
S1131DD0B22E2AE030E0A4010E941C10A82EA818FC
S1131DE044C0853729F42F7EB22E2AE030E025C086
S1131DF0F22FF97FBF2E8F36C1F018F4883579F0B1
S1131E00B4C0803719F0883721F0AFC02F2F20617C
S1131E10B22EB4FE0DC08B2D8460B82E09C024FFF1
S1131E200AC09F2F9660B92E06C028E030E005C096
S1131E3020E130E002C020E132E0F801B7FE07C043
S1131E4060817181828193810C5F1F4F06C0608124
S1131E50718180E090E00E5F1F4FA4010E941C106E
S1131E60A82EA818FB2DFF77BF2EB6FE0BC02B2D76
S1131E702E7FA51450F4B4FE0AC0B2FC08C02B2D6A
S1131E802E7E05C07A2C2B2D03C07A2C01C0752C14
S1131E9024FF0DC0FE01EA0DF11D8081803311F491
S1131EA0297E09C022FF06C07394739404C0822F54
S1131EB0867809F0739423FD13C020FF06C05A2CC2
S1131EC0731418F4530C5718732C731468F4B70173
S1131ED080E290E02C870E94EA0F73942C85F5CF62
S1131EE0731410F4371801C0312C24FF12C0B70149
S1131EF080E390E02C870E94EA0F2C8522FF17C014
S1131F0021FF03C088E590E002C088E790E0B701B4
S1131F100CC0822F867859F021FD02C080E201C0F6
S1131F208BE227FD8DE2B70190E00E94EA0FA51431
S1131F3038F4B70180E390E00E94EA0F5A94F7CF97
S1131F40AA94F401EA0DF11D8081B70190E00E948A
S1131F50EA0FA110F5CF332009F451CEB70180E286
S1131F6090E00E94EA0F3A94F6CFF70186819781B8
S1131F7002C08FEF9FEF2C960FB6F894DEBF0FBE12
S1131F80CDBFDF91CF911F910F91FF90EF90DF9024
S1131F90CF90BF90AF909F908F907F906F905F9005
S1131FA04F903F902F900895FC0105906150704030
S1131FB00110D8F7809590958E0F9F1F0895FC010E
S1131FC06150704001900110D8F7809590958E0F64
S1131FD09F1F08950F931F93CF93DF93182F092FFB
S1131FE0EB018B8181FD03C08FEF9FEF20C082FF47
S1131FF010C04E815F812C813D81421753077CF4D0
S1132000E881F9819F012F5F3F4F39832883108333
S113201006C0E885F985812F0995892B29F72E813A
S11320203F812F5F3F4F3F832E83812F902FDF917E
S1132030CF911F910F910895FA01AA27283051F1E9
S1132040203181F1E8946F936E7F6E5F7F4F8F4FE5
S11320509F4FAF4FB1E03ED0B4E03CD0670F781F44
S1132060891F9A1FA11D680F791F8A1F911DA11D29
S11320706A0F711D811D911DA11D20D009F4689462
S11320803F912AE0269F11243019305D3193DEF60A
S1132090CF010895462F4770405D4193B3E00FD0C0
S11320A0C9F7F6CF462F4F70405D4A3318F0495DAB
S11320B031FD4052419302D0A9F7EACFB4E0A6958E
S11320C09795879577956795BA95C9F700976105B0
S11320D0710508959B01AC010A2E06945795479506
S11320E037952795BA95C9F7620F731F841F951FFB
S10B20F0A01D0895F894FFCF30
S11320F802100000000000000000000000000000C2
S113210800000000000001000000000000000000C2
S11321180000FB012000F40164000A000D0A523A91
S1132128256920593A256920473A25690D0A000D81
S11321380A523A25690D0A000D0A593A25690D0A09
S1132148000D0A473A25690D0A000D0A5A65726F8F
S113215820436F6D706C6574650D0A000D0A546F29
S113216867676C6520436F6D706C6574650D0A0054
S1092178546573740000BD
S9030000FC
