:100000000C94CC000C94EB000C94EB000C94EB00E3
:100010000C94EB000C94EB000C94EB000C94870216
:100020000C94EB000C94EB000C94EB000C94EA0A9B
:100030000C94EB000C94EB000C94EB000C94200659
:100040000C94C2020C94EB000C94EB000C94EB00AB
:100050000C94EB000C94EB000C94EB000C94EB0074
:100060000C94EB000C94EB000C94EB000C94EB0064
:100070000C94EB000C94EB000C94EB000C94EB0054
:100080000C94D1020C94EB000C94EB003E673332DD
:100090003E3E633332006E616E00696E6600004062
:1000A0007A10F35A00A0724E18090010A5D4E80087
:1000B00000E87648170000E40B54020000CA9A3B9F
:1000C000000000E1F5050000809698000000404225
:1000D0000F000000A08601000000102700000000B3
:1000E000E803000000006400000000000A000000B7
:1000F00000000100000000002C76D888DC674F0863
:1001000023DFC1DFAE59E1B1B796E5E3E453C63A68
:10011000E651997696E8E6C28426EB898C9B62EDDF
:10012000407C6FFCEFBC9C9F40F2BAA56FA5F49099
:10013000055A2AF75C936B6CF9676DC11BFCE0E410
:100140000D47FEF520E6B500D0ED902E0300943566
:1001500077050080841E080000204E0A000000C8B9
:100160000C333333330F986E12831141EF8D21140A
:10017000893BE65516CFFEE6DB18D1844B381BF7DA
:100180007C1D901DA4BBE424203284725E22810079
:10019000C9F124ECA1E53D2711241FBECFEFD0E427
:1001A000DEBFCDBF11E0A0E0B1E0EEE5F9E200E096
:1001B0000BBF02C007900D92A034B107D9F721E020
:1001C000A0E4B1E001C01D92A638B207E1F70E9499
:1001D000DD010C94AD140C9400008F3F910521F0CB
:1001E0001CF08FEF90E006C081302FEF920714F4DF
:1001F00081E09FEF90937B0180937A0180917A0157
:1002000090917B010C941B0A20917A0130917B0123
:10021000820F931F0C94ED0080917A0190917B01E5
:100220009195819591090C94ED002F923F924F92F8
:100230005F926F927F928F929F92AF92BF92CF9276
:10024000DF92EF92FF920F931F93CF93DF93CDB77F
:10025000DEB728970FB6F894DEBF0FBECDBF1C01E6
:100260002A013B0168017901FC0120893189428919
:100270005389C301B2010E94BF0C69837A838B83C7
:100280009C83F1012481358146815781C301B201EC
:100290000E94700B2B013C01F101648375838683FE
:1002A000978384849584A684B784A50194010E94D1
:1002B000BB0CF10118166CF080849184A284B38485
:1002C000A5019401C301B2010E94D40B87FF05C0B0
:1002D000F10184829582A682B782F1012481358161
:1002E0004681578164897589868997890E94BF0CE8
:1002F0002B013C01F1012081318142815381C701F1
:10030000B6010E946F0BF101208D318D428D538D0E
:100310000E94BF0C4B015C01F101C082D182E282DC
:10032000F382A301920169817A818B819C810E9471
:10033000700BA50194010E946F0B28960FB6F894DC
:10034000DEBF0FBECDBFDF91CF911F910F91FF9008
:10035000EF90DF90CF90BF90AF909F908F907F9065
:100360006F905F904F903F902F90089585E085BDEE
:1003700082E884BD82EC87BDEEE6F0E08081826099
:10038000808308958DE08093910080E880939000B1
:1003900080EA97E09093990080939800E1E7F0E07D
:1003A0008081826080830895E8E6F0E08081886043
:1003B00080838CE0809373000895CF93DF93CDB753
:1003C000DEB76C970FB6F894DEBF0FBECDBF8CE8DA
:1003D00090E00E9483060E9424090E94A7070E94C1
:1003E000B6010E94C2010E94D401CE0101967C0197
:1003F0008CE1F70111928A95E9F78DEC9CECACE465
:10040000BDE3898B9A8BAB8BBC8B8AE2C82E81E0D3
:10041000D82E94E3292E91E0392E809177018823FC
:1004200029F10E94A70760E080E00E94CA0780913E
:100430006E0190916F01A0917001B0917101BF9315
:10044000AF939F938F93DF92CF920E941A148F9253
:100450009F920F931F933F922F920E941A14109213
:1004600077010FB6F894DEBF0FBECDBF8091760145
:100470008823C1F160916E0170916F0180917001CC
:100480009091710180906E0190906F01A090700129
:10049000B09071010E940B0C2B013C01C501B4010D
:1004A0000E940B0C9B01AC0160E070E48CE195E4D0
:1004B0000E946F0BAB01BC0193018201C7010E9436
:1004C0001501162F072F982E892EA8019401652F4C
:1004D000742F832F922F0E94D80BCB010E9404010E
:1004E000109276018CE20E94DF0A883041F080325F
:1004F00049F0843009F091CF8BEF9FEF05C00E9447
:100500000C018BCF85E090E00E94040186CF1F9202
:100510000F920FB60F9211242F933F934F938F9307
:100520009F9349B143FB442740F939B132FB33274C
:1005300030F920916D01232780916C01481749F013
:10054000809178019091790101969093790180933F
:100550007801222349F080917801909179010197E7
:10056000909379018093780140936D0130936C01F1
:100570009F918F914F913F912F910F900FBE0F90B0
:100580001F9018951F920F920FB60F9211248F9300
:1005900081E0809377018F910F900FBE0F901F9095
:1005A00018951F920F920FB60F9211242F933F931D
:1005B0004F935F936F937F938F939F93AF93BF936B
:1005C000409178015091790180917201909173016D
:1005D000A0917401B0917501662757FD6095762F43
:1005E00084179507A607B7070CF52091780130917D
:1005F00079018091720190917301A0917401B09181
:100600007501442737FD4095542F281B390B4A0BA1
:100610005B0BAAE0B0E00E94371160936E0170930B
:100620006F01809370019093710110C080916E01F1
:1006300090916F01A0917001B091710180936E0152
:1006400090936F01A0937001B09371018091780134
:1006500090917901AA2797FDA095BA2F80937201F6
:1006600090937301A0937401B093750180916B0115
:100670008F5F80936B0180916B01823029F410921F
:100680006B0181E080937601BF91AF919F918F9133
:100690007F916F915F914F913F912F910F900FBE7E
:1006A0000F901F90189590914501E0914101F091B4
:1006B0004201992311F0849101C08081282F215497
:1006C0002A3110F4805E0895803271F42091410146
:1006D00030914201A9014F5F5F4F50934201409317
:1006E00041012115310509F70895EF92FF92CF934B
:1006F000DF930E945303C0E0D0E01BC09E01220F95
:10070000331F93E0CC0FDD1F9A95E1F7C20FD31F83
:10071000992787FD9095C80FD91FE09780914101D7
:1007200090914201019690934201809341010E9471
:100730005303982F90539A3008F3CE01DF91CF9155
:10074000FF90EF90089510926F0083E280938000F5
:1007500081E1809381001092820080E197E2909382
:1007600089008093880010928B0010928A00549A1E
:100770007894089580914001882329F481E0809342
:1007800040010E94A3030895A0E0B0E0EAECF3E08A
:100790000C9448118C015B01E42E0E94BA03109264
:1007A000000117FF04C01F77AAE0FA2E02C0FF2441
:1007B000F394C0908100DD2428EFC222DD2488EC70
:1007C0003F2D389FC001112480179107D8F4E8010C
:1007D00067E20131160710F0C0E1D7E2BE0176955D
:1007E000679580E090E06058794687469F4F9E016C
:1007F00040E050E00E94F610890181E090E0C82AB4
:10080000D92A2CC098E2F99E902D112480E0892EDF
:10081000E4014E01982EE4018016910608F4E801E7
:10082000BE01769567959E0140E050E08F2D8A309D
:1008300039F480E090E0605E734481449F4F06C0CD
:1008400080E090E060537D4E8C4E9F4F0E94F610EA
:10085000890152E0852E912CC828D9282F2D2A30C5
:1008600039F4CE0105966AE070E00E94E210EB01D7
:1008700033E0C83ED30779F0BE0180E090E09501F7
:1008800040E050E00E94C61028EE33E040E050E027
:100890000E94181101C0950110926F00C092810052
:1008A000109389000093880040918800509189003E
:1008B0006E2D603108F06FE080E190E0861B9109B9
:1008C000BA0102C0769567958A95E2F770938B001E
:1008D00060938A00309348012093470186B38FEFDD
:1008E00086BB81E080936F00CDB7DEB7ECE00C945F
:1008F00064119B018F3F11F0442329F488EE93E0AB
:10090000B90140E049C0813130F0582F5051503684
:1009100018F05FE501C050E0852F6CE00E94D61012
:10092000A82FB0E0E4EFFFEFAE9FB001AF9F700DD6
:10093000BE9F700D1124650F711D6C30710540F460
:10094000FB01EE0FFF1FE65FFE4F6081718102C069
:1009500060E070E0873081F0082E02C0660F771FDC
:100960000A94E2F7823028F0CB0105966AE070E045
:100970000CC0605070480BC0CB01B6E0880F991FC7
:10098000BA95E1F7029665E070E00E94E21040310E
:1009900008F04FE0CB01B9010E94C4030895A0E024
:1009A000B0E0E5EDF4E00C944711B09001018091C6
:1009B0004301882361F060914401662341F08FEF89
:1009C00070E040E00E9479041092440134C1C0EC10
:1009D000DDE5AA24A39414E0712E00ED17E0B4E045
:1009E000EB2EF12CA4EFCA2EA1E0DA2EFFE08F2E21
:1009F000912C0E94530320914101309142012F5FBD
:100A00003F4F30934201209341018636F1F1873602
:100A1000CCF4823609F4AFC083367CF48E3349F1CE
:100A20008F333CF4813209F487C08C3309F09BC0CA
:100A300022C0813609F097C09BC0843601F185360B
:100A40000CF51BC08F3609F447C0803744F48C3650
:100A500011F18D3661F1873609F085C019C08437F0
:100A600009F444C0863709F460C0823709F07BC0BE
:100A700039C0B394BECFBA94BCCFEE2435C0EE24B7
:100A800082E07BC0EE2484E078C0EE2485E075C06F
:100A9000EE2487E072C00E947503BC0190930301AD
:100AA00080930201809104019091050137C00E945A
:100AB00053038C3619F41092430104C0A0924301F1
:100AC00010924401809141019091420101969093CE
:100AD0004201809341018DCF0E947503B82E80930F
:100AE000010187CFEE24E39480E047C00E947503A4
:100AF000BC01CE010E94E210CB01880F991F53E088
:100B0000660F771F5A95E1F7860F971F909305019F
:100B10008093040160910201709103010E94E21030
:100B2000709307016093060164CF0E947503909350
:100B30000901809308015DCF7092010110930501B6
:100B400000930401F0920301E0920201D0920701A8
:100B5000C09206019092090180920801109243010F
:100B600044E0B42E46CF109242011092410163C07E
:100B7000EE2489E002C0EE248BE09CE0B99EB02C0C
:100B80001124B80E0E9453038B3211F08332B9F452
:100B9000809141019091420101969093420180938E
:100BA0004101B394EFCF80914101909142010196B0
:100BB0009093420180934101BA940E9453038D3275
:100BC00091F3C0910601D09107018153883058F408
:100BD000C0910401D09105010E947503BC01CE01B2
:100BE0000E94E210EB018E010BC0809141019091B7
:100BF000420101969093420180934101C00FD11FA1
:100C0000169507950E9453038E3279F38091430124
:100C1000882339F0CE019695879580934401C81BAF
:100C2000D109EE2011F0BB24BA948B2DBE01409166
:100C300008010E947904CDB7DEB7EDE00C94631192
:100C40001F920F920FB60F920BB60F9211242F9393
:100C50003F934F935F936F937F938F939F93AF9344
:100C6000BF93EF93FF9380914701909148019C01BE
:100C7000215030403093480120934701009711F5EF
:100C800010926F00789480918100887F81608093BA
:100C9000810080E197E29093890080938800109210
:100CA0008B0010928A0081E08093000180914101C5
:100CB00090914201009731F080914601882311F410
:100CC0000E94CF04FF91EF91BF91AF919F918F91BF
:100CD0007F916F915F914F913F912F910F900BBE3C
:100CE0000F900FBE0F901F90189510926F00909369
:100CF00042018093410181E08093450110924401BB
:100D00000E94CF0408950E947506089580E090E047
:100D1000089581E090E06F9364E06A95F1F76F9138
:100D20000197C9F708950F931F93CF93DF9317B1DE
:100D30003D982898299AC0E0D0E00E9489062A9A16
:100D40000E94890606B12A980E9489062A9A0E9462
:100D500089062A98249605FF10C09E0140E050E0C5
:100D600080914D0190914E01A0914F01B0915001A1
:100D7000281739074A075B0700F39E0140E050E05F
:100D800080914D0190914E01A0914F01B091500181
:100D9000281739074A075B0728F082E390E0A0E0B4
:100DA000B0E004C080E395E7A0E0B0E080934D019F
:100DB00090934E01A0934F01B093500117B9DF916A
:100DC000CF911F910F91089528B190E08F7090708E
:100DD000880F991F880F991F237C282B28B92A9ADE
:100DE0000E9489062A980E9489060895A2E0B0E030
:100DF000ECEFF6E00C944F11182F4A8369830E94A0
:100E000071070E949306F7B008B1299869814A8159
:100E1000662311F0289A01C0289887B18C6387B99E
:100E2000413029F0812F82958F700E94E406812F36
:100E30008F700E94E406F7B808B92296E5E00C949A
:100E40006B1160E042E00E94F606089561E042E026
:100E50000E94F606089560E041E00E94F6060895BB
:100E60003D98459A80E395E7A0E0B0E080934D017E
:100E700090934E01A0934F01B0935001209A219A74
:100E8000229A8EE190E00E94320B83E00E942B07B1
:100E900086E090E00E94320B83E00E942B0782E004
:100EA00090E00E94320B83E00E942B0782E090E0EA
:100EB0000E94320B82E00E942B0782E090E00E94A9
:100EC000320B88E20E94210788E00E94210781E01E
:100ED0000E94210786E00E9421078CE00E942107E2
:100EE000089580915101882329F481E08093510174
:100EF0000E943007089581E00E94210780914901F6
:100F000090914A01009711F1A0E0B0E208C0E09191
:100F10004901F0914A01E20FF31FB083AF5F2A2F1E
:100F200030E08091220190E001976091230170E010
:100F3000869FA001879F500D969F500D1124241766
:100F400035072CF310924C0110924B0108950E942A
:100F50007B070895A5E0B0E0E0EBF7E00C945111B9
:100F6000182F80E8898380EC8A8384E98B8384ED61
:100F70008C83FE01E60FF11D8181810F6D830E943C
:100F8000210710934C016D8160934B012596E3E09E
:100F90000C946D110E94AA070895A0E0B0E0E3ED63
:100FA000F7E00C944C11D82E8091490190914A01A0
:100FB000009709F4FAC02D2D2A3009F443C02830D7
:100FC000C9F480914C01815080934C018F3F51F4C2
:100FD00080914B01815080934B018091230181507E
:100FE00080934C0180914B018F3F09F0D8C0109243
:100FF0004B01D3C08D2D0E94260780914B01882381
:10100000B9F090E001974091230150E0849F900156
:10101000859F300D949F300D112480914C01E091FB
:101020004901F0914A01E20FF31FE80FF11DD08250
:1010300080914C018F5F80934C019091230189171F
:1010400009F0B3C040914B01242F30E08091220180
:1010500090E001972817390709F09CC0C0E0D0E064
:1010600041C080E06C2F0E94AA07CC248E010F5F44
:101070001F4F33C0EC2CFF2430E0C29FC001C39F40
:10108000900DD29F900D1124E0914901F0914A01F9
:10109000EE0DFF1DE80FF91F80810E942607809149
:1010A000490190914A012091230130E0C29FF00153
:1010B000C39FF00DD29FF00D11248E0D9F1DE80FE0
:1010C000F91F029FD001039FB00D129FB00D112494
:1010D000A80FB91F8C918083C39420912301C2165D
:1010E00048F2E80160912201862F90E00297C8172C
:1010F000D9070CF4B6CF6230E0F1625080E00E9474
:10110000AA0700E010E231C0C02FD0E08091220198
:1011100090E0029750E0849F9001859F300D949F4E
:10112000300D1124E0914901F0914A01EC0FFD1FAF
:10113000E20FF31F80810E9426078091220190E038
:1011400002974091230150E0849F9001859F300DCC
:10115000949F300D1124E0914901F0914A01EC0F68
:10116000FD1FE20FF31F10830F5F4091230104174F
:1011700058F260912201615080E00E94AA0710E0BD
:1011800004C080E20E9426071F5F80912301181788
:10119000C0F303C04F5F40934B0110924C0180910C
:1011A0004C0160914B010E94AA072D2D332727FD8A
:1011B0003095C901CDB7DEB7E8E00C946811809195
:1011C000490190914A01009711F00E94201220914C
:1011D000220130E0215030408091230190E0AC01A9
:1011E000249FC001259F900D349F900D11240E94D3
:1011F000881190934A0180934901009721F1A0E062
:10120000B0E208C0E0914901F0914A01E20FF31FFA
:10121000B083AF5F2A2F30E08091220190E00197E8
:101220006091230170E0869FA001879F500D969FDB
:10123000500D1124241735072CF38DEC97E066E848
:1012400076E00E949D1308950E94DF080895FC0136
:1012500011821082138212821582148216826830E3
:1012600068F489E290E0918380838BE290E093833D
:1012700082838AE290E09583848323C0603180F486
:1012800083E290E09183808385E290E09383828380
:1012900084E290E09583848370E06850704011C0D0
:1012A0006831C0F486E290E09183808388E290E028
:1012B0009383828387E290E09583848370E060511A
:1012C000704081E090E002C0880F991F6A95E2F7B4
:1012D000868308956032C0F480E290E09183808339
:1012E00082E290E09383828381E290E0958384831D
:1012F0002FE130E0261B310981E090E002C0880F29
:10130000991F2A95E2F786830895FC01A481B5818F
:101310008681662321F09C91982B9C9308959C9143
:10132000809589238C930895FC016F3F31F4A2814D
:10133000B3818C91968189270CC0A281B38186816B
:10134000662321F09C91982B9C9308959C91809505
:1013500089238C930895A7E0B0E0E1EBF9E00C94C9
:101360004F11282FF62E8E010F5F1F4FC801622FDD
:101370000E942709C8016F2D0E949409C80161E0ED
:101380000E9485092796E5E00C946B1183E0809319
:10139000B00082E08093B100E4EBF0E01082808145
:1013A0008093B30087E160E00E94AB0986E160E0D2
:1013B0000E94AB0987E060E00E94AB0986E060E034
:1013C0000E94AB09089580915201882329F481E09D
:1013D000809352010E94C6090895CF93DF93EC01D8
:1013E0000E94E309D7FF05C0D095C195DF4F91E07A
:1013F00001C090E0CF3FD10519F014F0CFEFD0E05D
:10140000C093B300209731F48091B0008F77809320
:10141000B0000EC08091B00080688093B000992326
:1014200019F087E161E002C087E160E00E94AB094A
:10143000DF91CF9108950E94ED09089587B1837DD2
:1014400087B988B18C6288B985E090E06F9364E0D9
:101450006A95F1F76F910197C9F70895809153014B
:10146000882329F481E0809353010E941E0A089585
:10147000BF92CF92DF92EF92FF920F931F93B82EFD
:10148000C6B0DC2CD0940E946C0B7B018C010E94B6
:101490002E0A80915F01813021F1813038F0823055
:1014A00009F445C0833009F081C063C02B2D30E0C2
:1014B0004D2D50E0409550952423352321153105BD
:1014C00009F474C0CB20C0925A01E0925B01F09203
:1014D0005C0100935D0110935E0181E080935F01E8
:1014E00065C080915B0190915C01A0915D01B0911C
:1014F0005E01E81AF90A0A0B1B0B8FE0E816F104EB
:101500000105110508F452C040915A018D2D90E05B
:1015100080959095242F30E082239323009731F11A
:1015200082E080935F01C422C0925A013FC0409183
:101530005A018D2D842371F093E090935F01809385
:101540005A01E0925B01F0925C0100935D011093FF
:101550005E012CC050E08B2D90E02D2D30E02095C9
:101560003095822393234817590701F110925F01A8
:101570001DC080915B0190915C01A0915D01B091D3
:101580005E01E81AF90A0A0B1B0B8FE0E816F1045A
:101590000105110558F080915A018D2119F0109222
:1015A0005F0105C092E090935F0101C080E01F9150
:1015B0000F91FF90EF90DF90CF90BF9008950E9421
:1015C000380A08956F9364E06A95F1F76F91019777
:1015D000C9F708952F928F939F932FB68091610141
:1015E000909162010196809361019093620190E075
:1015F00080916301891F80936301909169019C5FD1
:10160000909369018091680180519742C0F0909356
:101610006901809368018091640190916501019650
:10162000809364019093650190E080916601891F29
:101630008093660180916701891F809367012FBEA7
:101640009F918F912F901895CF93DF93EC0105C058
:1016500088EE93E00E94E20A21972097C9F7DF9174
:10166000CF9108950E94240B0895E0E7F0E0808177
:101670008E7F8083A0EBB0E08C9183608C93A1EB94
:10168000B0E08C91807F8C938C9182608C93B89A1F
:101690008081816080837894089580916A01882395
:1016A00029F481E080936A010E94350B08950E941D
:1016B0004D0BE0E7F0E080818E7F80832091640114
:1016C0003091650140916601509167018081816090
:1016D0008083B901CA0108950E94570B089550589C
:1016E000BB27AA270ED00DC1FED030F003D120F0C9
:1016F00031F49F3F11F41EF4F3C00EF4E095E7FBC4
:10170000E9C0E92F0FD180F3BA1762077307840786
:10171000950718F071F49EF527C10EF4E0950B2E95
:10172000BA2FA02D0B01B90190010C01CA01A00133
:101730001124FF27591B99F0593F50F4503E68F18E
:101740001A16F040A22F232F342F4427585FF3CFCF
:10175000469537952795A795F0405395C9F77EF4A0
:101760001F16BA0B620B730B840BBAF09150A1F0E9
:10177000FF0FBB1F661F771F881FC2F70EC0BA0F6F
:10178000621F731F841F48F4879577956795B795F7
:10179000F7959E3F08F0B3CF9395880F08F09927EF
:1017A000EE0F97958795089571D008F481E008951C
:1017B00004D06894B111D9C00895BCD088F09F5767
:1017C00090F0B92F9927B751A0F0D1F0660F771F8D
:1017D000881F991F1AF0BA95C9F712C0B13081F06D
:1017E000C3D0B1E00895C0C0672F782F8827B85FB5
:1017F00039F0B93FCCF3869577956795B395D9F7CE
:101800003EF490958095709561957F4F8F4F9F4FD7
:101810000895E89409C097FB3EF4909580957095E3
:1018200061957F4F8F4F9F4F9923A9F0F92F96E92C
:10183000BB279395F695879577956795B795F111A1
:10184000F8CFFAF4BB0F11F460FF1BC06F5F7F4F3E
:101850008F4F9F4F16C0882311F096E911C0772350
:1018600021F09EE8872F762F05C0662371F096E859
:10187000862F70E060E02AF09A95660F771F881F28
:10188000DAF7880F9695879597F90895990F0008CC
:10189000550FAA0BE0E8FEEF16161706E807F90742
:1018A000C0F012161306E407F50798F0621B730BDD
:1018B000840B950B39F40A2661F0232B242B252B5E
:1018C00021F408950A2609F4A140A6958FEF811D01
:1018D000811D089597F99F6780E870E060E00895A2
:1018E0009FEF80EC089500240A9416161706180638
:1018F0000906089500240A94121613061406050614
:101900000895092E0394000C11F4882352F0BB0FA4
:1019100040F4BF2B11F460FF04C06F5F7F4F8F4F07
:101920009F4F089557FD9058440F551F59F05F3F42
:1019300071F04795880F97FB991F61F09F3F79F0F1
:1019400087950895121613061406551FF2CF469573
:10195000F1DF08C0161617061806991FF1CF8695F5
:101960007105610508940895E894BB2766277727D9
:10197000CB0197F908958ADF08F48FEF08950BD013
:10198000C0CFB1DF28F0B6DF18F0952309F0A2CF61
:10199000A7CF1124EACFC6DFA0F3959FD1F3950F0F
:1019A00050E0551F629FF001729FBB27F00DB11DE3
:1019B000639FAA27F00DB11DAA1F649F6627B00D73
:1019C000A11D661F829F2227B00DA11D621F739F5C
:1019D000B00DA11D621F839FA00D611D221F749F6A
:1019E0003327A00D611D231F849F600D211D822FB1
:1019F000762F6A2F11249F5750408AF0E1F08823F8
:101A00004AF0EE0FFF1FBB1F661F771F881F915004
:101A10005040A9F79E3F510570F05CCFA6CF5F3FC5
:101A2000ECF3983EDCF3869577956795B795F79537
:101A3000E7959F5FC1F7FE2B880F911D96958795BF
:101A400097F908952F923F924F925F926F927F92F3
:101A50008F929F92AF92BF92CF92DF92EF92FF92BE
:101A60000F931F93CF93DF93CDB7DEB763970FB676
:101A7000F894DEBF0FBECDBF7C011B016A01FC01E3
:101A800017821682838181FF66C3BE016F5F7F4F1D
:101A90004B01F7019381F10193FD859193FF8191B2
:101AA0001F01882309F453C3853239F493FD8591CE
:101AB00093FF81911F01853239F4B70190E00E94B4
:101AC000E81356016501E5CF10E0512C20E02032EB
:101AD000A0F48B3269F030F4803259F0833269F42B
:101AE00020612CC08D3239F0803339F4216026C05A
:101AF0002260246023C0286021C027FD27C030ED6C
:101B0000380F3A3078F426FF06C0FAE01F9F300DF8
:101B10001124132F13C06AE0569E300D1124532E4A
:101B200020620CC08E3221F426FD11C3206406C051
:101B30008C3611F4206802C0883641F4F10193FD1F
:101B4000859193FF81911F018111C1CF9BEB980F6C
:101B5000933018F42061805E06C09BE9980F9330A3
:101B600008F0AAC12F7E26FF16E02F73722E85364D
:101B700021F4F22FF0647F2E08C0863621F4622F04
:101B80006068762E02C01111115077FE07C01C3319
:101B900048F444244394410E27E00BC0183030F43D
:101BA000212F06C027E04CE3442E03C027E017E0B6
:101BB000412C560174E0A70EB11CF60160817181C1
:101BC00082819381042DA4010E94AF126C010981CE
:101BD00000FF02C003FF06C071FC07C072FC08C012
:101BE000612C08C03DE2632E05C02BE2622E02C0CC
:101BF00090E2692E802F8C7099F1662011F084E0BC
:101C000001C083E0851510F0512C0BC0581A73FCED
:101C100008C0B70180E290E00E94E8135A94C9F727
:101C2000F3CF662029F0B701862D90E00E94E813DB
:101C300003FD03C00AE910E002C006E910E0F72D39
:101C4000F0717F2EF8018491882309F476C2711017
:101C50008052B70190E00E94E8130F5F1F4FF2CF50
:101C600077FE0FC04C0C04FF04C08A81813309F455
:101C70004A94141474F5F8E0F41578F588E0482EC9
:101C80002CC076FC2AC0812F90E08C159D059CF01D
:101C90006CEFC6166FEFD60674F0772D7068772E4E
:101CA0000AC0E2E0F0E0EC0FFD1FE10FF11D8081C2
:101CB000803319F411501111F4CF77FE0EC0442473
:101CC0004394410E812F90E0C816D9062CF41C19BC
:101CD00004C04424439401C010E077FE07C01C14E4
:101CE0001D043CF496012F5F3F4F05C025E030E016
:101CF00002C021E030E0662011F02F5F3F4F11233A
:101D000031F0412F50E04F5F5F4F240F351F452DBD
:101D100050E02417350714F4521A01C0512C872DB6
:101D2000897049F4552039F0B70180E290E00E94B3
:101D3000E8135A94F7CF662029F0B701862D90E07A
:101D40000E94E81373FC09C0552039F0B70180E305
:101D500090E00E94E8135A94F7CF77FE5FC09C2D65
:101D60008D2DD7FE02C090E080E0692E782E40E0F5
:101D700050E0C601841991099D878C879601261928
:101D80003709280D391D812F90E0EE27FF27E81B2A
:101D9000F90BFF87EE87FFEF6F167F0669F4B70137
:101DA0008EE290E02B8B3A8B488B598B0E94E81384
:101DB000598948893A892B89C614D70454F06C850F
:101DC0007D85661577052CF4F901E40FF51F8181F7
:101DD00001C080E371E0671A71084F5F5F4FEE85C5
:101DE000FF856E167F066CF0B70190E02B8B3A8B67
:101DF000488B598B0E94E8132B893A894889598965
:101E0000CACF6C147D0439F49A81963318F4953353
:101E100011F404FF81E3B70190E04BC08A81813364
:101E200009F00F7EB70190E00E94E813111105C080
:101E300074FE18C085E490E017C0B7018EE290E010
:101E40000E94E81382E066246394680EF401E80FB0
:101E5000F11D8081B70190E00E94E813115041F319
:101E6000862DF1CF85E690E0B7010E94E813D7FCFC
:101E700005C0C114D10439F404FF05C0D194C19444
:101E8000D1088DE201C08BE2B70190E00E94E81317
:101E900080E36AE0C616D1042CF08F5FFAE0CF1A17
:101EA000D108F7CFB70190E00E94E813B701C6014F
:101EB000C0960E94E81341C1833631F0833779F030
:101EC000833509F058C021C0560172E0A70EB11C3D
:101ED000F6018081898301E010E0640114C056019D
:101EE000F2E0AF0EB11CF601C080D18026FF03C026
:101EF000612F70E002C06FEF7FEFC6012B8B0E9455
:101F000092138C012B892F7715C05601F2E0AF0E8A
:101F1000B11CF601C080D18026FF03C0612F70E0A4
:101F200002C06FEF7FEFC6012B8B0E9487138C01DD
:101F30002B892068722E23FD1AC0852D90E008178A
:101F40001907A8F4B70180E290E00E94E8135A94C0
:101F5000F4CFF60177FC859177FE81916F01B7018F
:101F600090E00E94E81351105A9401501109011594
:101F7000110579F7E2C0843611F0893651F5560122
:101F800027FF09C0F4E0AF0EB11CF601608171813A
:101F9000828193810AC0F2E0AF0EB11CF60160812C
:101FA0007181882777FD8095982F022F0F7697FFF4
:101FB00008C090958095709561957F4F8F4F9F4F8A
:101FC00000682AE030E0A4010E942C14C82EC81832
:101FD0003EC0022F853721F40F7E2AE030E01DC07D
:101FE000097F8F3691F018F4883559F0B0C08037EA
:101FF00019F0883711F0ABC0006104FF09C004601C
:1020000007C024FF08C0066006C028E030E005C015
:1020100020E130E002C020E132E0560107FF09C0B4
:10202000F4E0AF0EB11CF601608171818281938171
:1020300008C0F2E0AF0EB11CF6016081718180E052
:1020400090E0A4010E942C14C82EC8180F7706FF38
:102050000BC0202F2E7FC11650F404FF0AC002FDD2
:1020600008C0202F2E7E05C0DC2C202F03C0DC2CC6
:1020700001C0D12E24FF0DC0FE01EC0DF11D8081A9
:10208000803311F4297E09C022FF06C0D394D39473
:1020900004C0822F867809F0D39423FD13C020FF5B
:1020A00006C01C2DD51418F4150D1D19D52CD514EA
:1020B00068F4B70180E290E02B8B0E94E813D39480
:1020C0002B89F5CFD51410F45D1801C0512C24FFD5
:1020D00012C0B70180E390E02B8B0E94E8132B899C
:1020E00022FF17C021FF03C088E590E002C088E707
:1020F00090E0B7010CC0822F867859F021FD02C014
:1021000080E201C08BE227FD8DE2B70190E00E94E2
:10211000E813C11638F4B70180E390E00E94E81399
:102120001150F7CFCA94F401EC0DF11D8081B70175
:1021300090E00E94E813C110F5CF552009F4C2CCFD
:10214000B70180E290E00E94E8135A94F6CFF701BD
:102150008681978102C08FEF9FEF63960FB6F89448
:10216000DEBF0FBECDBFDF91CF911F910F91FF90CA
:10217000EF90DF90CF90BF90AF909F908F907F9027
:102180006F905F904F903F902F900895DB018F9359
:102190009F930E943711BF91AF91A29F800D911D17
:1021A000A39F900DB29F900D11240895991B79E083
:1021B00004C0991F961708F0961B881F7A95C9F7D7
:1021C00080950895AA1BBB1B51E107C0AA1FBB1F26
:1021D000A617B70710F0A61BB70B881F991F5A95B3
:1021E000A9F780959095BC01CD010895A1E21A2E22
:1021F000AA1BBB1BFD010DC0AA1FBB1FEE1FFF1FAB
:10220000A217B307E407F50720F0A21BB30BE40BFA
:10221000F50B661F771F881F991F1A9469F7609541
:102220007095809590959B01AC01BD01CF010895FB
:10223000052E97FB1EF400940E942F1157FD07D026
:102240000E94F61007FC03D04EF40C942F11509509
:102250004095309521953F4F4F4F5F4F0895909592
:102260008095709561957F4F8F4F9F4F08950E9485
:102270007911A59F900DB49F900DA49F800D911D85
:10228000112408952F923F924F925F926F927F9206
:102290008F929F92AF92BF92CF92DF92EF92FF9276
:1022A0000F931F93CF93DF93CDB7DEB7CA1BDB0B22
:1022B0000FB6F894DEBF0FBECDBF09942A883988C7
:1022C00048885F846E847D848C849B84AA84B984CE
:1022D000C884DF80EE80FD800C811B81AA81B981DA
:1022E000CE0FD11D0FB6F894DEBF0FBECDBFED01EE
:1022F0000895A29FB001B39FC001A39F700D811DDF
:102300001124911DB29F700D811D1124911D0895FE
:10231000CF93DF938230910510F482E090E0E0915A
:102320007E01F0917F0120E030E0A0E0B0E0309746
:1023300039F14081518148175907B8F048175907BA
:1023400071F482819381109729F013969C938E9358
:1023500012972CC090937F0180937E0127C0211596
:10236000310531F04217530718F0A901DB0101C014
:10237000EF019A01BD01DF010280F381E02DD7CF8B
:1023800021153105F9F0281B390B2430310580F473
:102390008A819B816115710521F0FB019383828302
:1023A00004C090937F0180937E01FE01329644C069
:1023B000FE01E20FF31F819391932250310939837B
:1023C00028833AC020917C0130917D01232B41F478
:1023D000209126013091270130937D0120937C01CB
:1023E00020912401309125012115310541F42DB7AB
:1023F0003EB74091280150912901241B350BE091F3
:102400007C01F0917D01E217F307A0F42E1B3F0B36
:102410002817390778F0AC014E5F5F4F2417350756
:1024200048F04E0F5F1F50937D0140937C018193D4
:10243000919302C0E0E0F0E0CF01DF91CF910895E9
:10244000CF93DF93009709F487C0FC013297138282
:102450001282C0917E01D0917F01209781F420816A
:102460003181280F391F80917C0190917D01821765
:10247000930779F5F0937D01E0937C016DC0DE0157
:1024800020E030E0AE17BF0750F412964D915C91FA
:1024900013979D014115510509F1DA01F3CFB3837B
:1024A000A28340815181840F951F8A179B0771F485
:1024B0008D919C911197840F951F02969183808333
:1024C00012968D919C9113979383828321153105E8
:1024D00029F4F0937F01E0937E013EC0D901139669
:1024E000FC93EE9312974D915D91A40FB51FEA17DF
:1024F000FB0779F480819181840F951F0296D901A1
:1025000011969C938E938281938113969C938E93C4
:102510001297E0E0F0E08A819B81009719F0FE01BC
:10252000EC01F9CFCE01029628813981820F931FE9
:1025300020917C0130917D012817390769F430978B
:1025400029F410927F0110927E0102C01382128240
:10255000D0937D01C0937C01DF91CF910895283005
:1025600008F027E03327DA01990F311D87FD9160CC
:1025700000966105710539F432602E5F3D9330E3BA
:102580002A95E1F708959F3F30F080387105610585
:1025900009F03C5F3C5F3D93913008F08068911DED
:1025A000DF93CF931F930F93FF92EF92192F987F92
:1025B0009695E92F96959695E90FFF27E850FF4FDE
:1025C00099273327EE24FF24A701E70105900894FB
:1025D000079428F4360FE71EF81E491F511D660F99
:1025E000771F881F991F0694A1F70590079428F478
:1025F000E70EF81E491F561FC11D770F881F991F30
:10260000661F0694A1F70590079428F4F80E491F59
:10261000561FC71FD11D880F991F661F771F06946D
:10262000A1F70590079420F4490F561FC71FD81F24
:10263000990F661F771F881F0694A9F7849110953C
:10264000177041F0D695C79557954795F794E7943D
:102650001A95C1F7EEE9F0E068941590159135915F
:102660006591959105907FE27395E118F10A430B0E
:10267000560BC90BD009C0F7E10CF11E431F561FC2
:10268000C91FD01D7EF4703311F48A95E6CFE8940B
:10269000015030F0080F0AF40027021708F4202F29
:1026A0002395022F7A3328F079E37D932A95E9F771
:1026B00010C07D932A9589F606949795679537956E
:1026C00017951794E118F10A430B560BC90BD00963
:1026D00098F023957E9173957A3308F070E37C939C
:1026E0002013B8F77E9170617D9330F0839571E38C
:1026F0007D9370E32A95E1F71124EF90FF900F91FD
:102700001F91CF91DF91992787FD90950895FC0146
:102710000590615070400110D8F7809590958E0F0C
:102720009F1F0895FC016150704001900110D8F77F
:10273000809590958E0F9F1F08950F931F93CF93B1
:10274000DF93EC018B01009731F46115710519F4E9
:1027500080E090E038C06EE070E081E090E00E94A0
:102760008A14FC010097A1F380E883830115110509
:1027700071F01387028781E88383809180019091B3
:102780008101892B21F4F0938101E093800120974E
:10279000C9F0D187C0878381826083838091820161
:1027A00090918301892B71F4F0938301E09382016E
:1027B0008091840190918501892B21F4F09385010A
:1027C000E0938401CF01DF91CF911F910F91089584
:1027D0000F931F93CF93DF93182F092FEB018B815A
:1027E00081FD03C08FEF9FEF20C082FF10C04E819C
:1027F0005F812C813D81421753077CF4E881F98188
:102800009F012F5F3F4F39832883108306C0E885DF
:10281000F985812F0995892B29F72E813F812F5F1B
:102820003F4F3F832E83812F902FDF91CF911F91B8
:102830000F910895CF93DF93CDB7DEB7FE013596A4
:1028400061917191AF0180918201909183010E9409
:10285000220DDF91CF910895FA01AA27283051F176
:10286000203181F1E8946F936E7F6E5F7F4F8F4FC1
:102870009F4FAF4FB1E03ED0B4E03CD0670F781F20
:10288000891F9A1FA11D680F791F8A1F911DA11D05
:102890006A0F711D811D911DA11D20D009F468943E
:1028A0003F912AE0269F11243019305D3193DEF6E6
:1028B000CF010895462F4770405D4193B3E00FD09C
:1028C000C9F7F6CF462F4F70405D4A3318F0495D87
:1028D00031FD4052419302D0A9F7EACFB4E0A6956A
:1028E0009795879577956795BA95C9F7009761058C
:1028F000710508959B01AC010A2E069457954795E2
:1029000037952795BA95C9F7620F731F841F951FD6
:10291000A01D08950F931F93CF93DF93869F80018F
:10292000879F100D969F100D1124C8010E948811D9
:10293000EC01009729F0A80160E070E00E94A61465
:10294000CE01DF91CF911F910F910895DC0101C05D
:0E2950006D9341505040E0F70895F894FFCF8A
:10295E0001040400D007F4010F009C01B501CF0162
:10296E00EA0107022602470269028E02B502DE0262
:10297E000A03021000008601200053706565643A58
:10298E0025640A0044726976653A252E3166000088
:00000001FF
